:060000000A128A11122809
:10000800FE00030E83160313D7000408D8000A085D
:10001800D9007F08DA000A168A15FC2E0A128A11FE
:1000280015288313DB308400EB300A168A155C220E
:100038000A128A11831790308400B3300A168A1581
:100048005C220A128A1183010A168A151D2B83164F
:100058000313CF00B530C200352E253056060319DC
:100068003628372841284F0884005608831780000F
:100078000130FF007F08CF07352EC301C4013408C3
:1000880084000A168A1100200A128A112E3A031DCA
:100098004E284F28942844170130FF007F08B407E2
:1000A800D001D10183280A30F0000030F100831616
:1000B80003135108F3005008F2000A168A155B234F
:1000C8000A128A11710883160313D1007008D00030
:1000D800340884000A168A1100200A128A11D03EB8
:1000E800B900FF3003180030BA003908D0070318E8
:1000F800D10A3A08D1070130FF007F08B407340855
:1001080084000A168A1100200A128A110A168A1512
:10011800E1220A128A1103189228932857289A284C
:10012800D001D10144169A284415B6280130831607
:100138000313B407FF30340784000A168A1100201D
:100148000A128A11D600B900BA013A08003A03190E
:10015800AE28352E3908003A0319452E663A031998
:100168009828352E00304305B90007304405BA00F9
:1001780039083A040319C128C228F22D441EC5289B
:10018800C628CA280630D0000030D10042088400B2
:1001980083130008D200840A0008D300840A0008E8
:1001A800D400840A0008D5000430FF007F08C20785
:1001B8005508F3005408F2005308F1005208F00003
:1001C8000030F7000030F6000030F5000030F40091
:1001D8000A128A1503200A128A110318F428F5282E
:1001E8001229831603135508F3005408F200530824
:1001F800F1005208F0000A168A1581220A128A11A3
:10020800730883160313D5007208D4007108D3004D
:100218007008D2000330C3040030C40483160313EB
:10022800C901CA015508F3005408F2005308F10047
:100238005208F0000030F7000030F6000030F500FA
:100248000030F4000A168A15BA230A128A11031814
:100258002E292F291F2A031083160313540D550D19
:10026800823EC900FF3003180030CA00FF30C907BA
:100278000318CA0AFF30CA070330F0000030F10043
:100288004A08F3004908F2000A168A155B230A1285
:100298008A11710883160313CA007008C9000A304E
:1002A800F6000030F7004A08F9004908F8000A1675
:1002B8008A1521260A128A11770883160313CA00A1
:1002C8007608C900CA1F69296A297029FF30C90739
:1002D8000318CA0AFF30CA074903FF3A0A128A15E7
:1002E800A1240A128A1183120313570883160313D1
:1002F800CE0083120313560883160313CD0083120E
:100308000313550883160313CC00831203135408F0
:1003180083160313CB00550883120313BD008316FD
:100328000313540883120313BC00831603135308E2
:1003380083120313BB00831603135208831203139B
:10034800BA00831603134E0883120313C1008316E1
:1003580003134D0883120313C000831603134C08BC
:1003680083120313BF00831603134B08831203136E
:10037800BE000A128A155C210A128A11831203131D
:100388003D0883160313CE00831203133C0883161B
:100398000313CD00831203133B0883160313CC0009
:1003A800831203133A0883160313CB004E08F30095
:1003B8004D08F2004C08F1004B08F0003F30F70000
:1003C8008030F6000030F5000030F4000A128A157B
:1003D80003200A128A110318F229F329FC29FF3095
:1003E80083160313C9070318CA0AFF30CA071F2A4E
:1003F800831603134E08F3004D08F2004C08F10071
:100408004B08F0004130F7002030F6000030F500CE
:100418000030F4000A128A1503200A128A11031CFC
:10042800162A172A1F2A013083160313C90703182F
:10043800CA0A0030CA07831603135108803AFF001E
:1004480080307F02031D2A2A0D30500203182D2AFE
:100458002E2A752A8316031350080A168A11B12208
:100468000A128A11831203135708EB005608EA0090
:100478005508E9005408E800831603135508831249
:100488000313EF0083160313540883120313EE00BB
:1004980083160313530883120313ED008316031303
:1004A800520883120313EC000A168A11BC240A129C
:1004B8008A11831203136B0883160313D500831262
:1004C80003136A0883160313D400831203136908FD
:1004D80083160313D30083120313680883160313C8
:1004E800D200831603134A08803AFF0080307F0247
:1004F800031D802A0A3049020318832A842AD52A30
:10050800831603135508F3005408F2005308F1004A
:100518005208F0000030F7000030F6000030F50017
:100528000030F4000A168A15BA230A128A11031831
:100538009E2A9F2A472B83160313550883120313F9
:10054800EA0083160313540883120313E900831681
:100558000313530883120313E80083160313520886
:1005680083120313E7000A168A1572270A128A11E2
:10057800831203136A08690468046704031DC52A03
:10058800C62A472B831603134A08803AFF00803097
:100598007F02031DD12A02304902031CD42AD52A1E
:1005A800472B831603134E08F3004D08F2004C083E
:1005B800F1004B08F0004030F7008930F600703049
:1005C800F5005F30F4000A128A1503200A128A1116
:1005D8000318EF2AF02AF92AF73083160313C907FC
:1005E8000318CA0AFF30CA07012BF8308316031311
:1005F800C9070318CA0AFF30CA0749080A128A1528
:10060800A1240A128A1183120313570883160313AD
:10061800CE0083120313560883160313CD008312EA
:100628000313550883160313CC00831203135408CD
:1006380083160313CB005508F3005408F20053083F
:10064800F1005208F0004E08F7004D08F6004C087B
:10065800F5004B08F4000A128A114A260A128A1178
:10066800730883160313C8007208C7007108C60010
:100678007008C5000030D5000030D4000030D30029
:100688000030D200AD2B83160313550883120313D1
:10069800EA0083160313540883120313E900831630
:1006A8000313530883120313E80083160313520835
:1006B80083120313E7000A168A1572270A128A1191
:1006C800831203136A0883160313C80083120313E3
:1006D800690883160313C700831203136808831677
:1006E8000313C60083120313670883160313C50098
:1006F8004808F3004708F2004608F1004508F000F2
:1007080000300A128A1102270A128A117308831606
:100718000313AF007208AE007108AD007008AC009A
:100728005508B3005408B2005308B1005208B0008D
:100738000A168A1508240A128A11831603132F0829
:10074800D5002E08D4002D08D3002C08D200C901EA
:10075800CA01D601D60A5608B90001300310B90DEE
:10076800FF3E031DB22B0310390D693E84000A16A3
:100778008A1100200A128A11BA000A168A1100206A
:100788000A128A11BB000A168A1100200A128A115D
:10079800BC000A168A1100200A128A11BD003D0801
:1007A8004802031DE12B3C084702031DE12B3B08CF
:1007B8004602031DE12B3A0845020318E42BE52BFA
:1007C800E62BF02B0130FF007F08D6070A305606CB
:1007D800031DEF2BF02BAF2B03304305B90000307E
:1007E8004405BA0039083A040319FB2BFC2B672C83
:1007F8004F0884002D30831780000130FF007F08E8
:10080800CF07672C5608B90001300310B90DFF3E19
:10081800031D092C0310390D693E84000A168A113C
:1008280000200A128A11F0000A168A1100200A1202
:100838008A11F1000A168A1100200A128A11F200A0
:100848000A168A1100200A128A11F3004808F700D4
:100858004708F6004608F5004508F4000A168A1508
:10086800BB250A128A11730883160313CE00720877
:10087800CD007108CC007008CB000030F3000030C8
:10088800F2000030F1000A30F0004E08F7004D0881
:10089800F6004C08F5004B08F4000A168A15AC243B
:1008A8000A128A11730883160313CE007208CD004A
:1008B8007108CC007008CB004F0884004B08303E0C
:1008C80083178000012C0130D602560A031D6D2CB7
:1008D8006E2C062C802C831603134F0884003030AE
:1008E800831780000130FF007F08CF07FF30C9075A
:1008F8000318CA0AFF30CA074A08803AFF00803046
:100908007F02031D892C0130490203188C2C8D2C81
:100918006F2C831603135108803AFF0080307F0242
:10092800031D982C09305002031C9B2C9C2CA12CD5
:10093800083083160313D600A52C8316031350081A
:10094800D6005608B900BA013908D0023A08031C83
:10095800D103D10256080319B22CB32CBC2C4F0872
:1009680084002E30831780000130FF007F08CF07F6
:1009780056080A128A15A1240A128A11831203132F
:10098800570883160313C1008312031356088316EE
:100998000313C00083120313550883160313BF0003
:1009A80083120313540883160313BE0041088312ED
:1009B8000313C10083160313400883120313C000F6
:1009C800831603133F0883120313BF008316031310
:1009D8003E0883120313BE008316031355088312BF
:1009E8000313BD0083160313540883120313BC00BA
:1009F80083160313530883120313BB0083160313D0
:100A0800520883120313BA000A128A155C210A12CB
:100A18008A11831203133D08EA003C08E9003B08E9
:100A2800E8003A08E7000A168A1572270A128A119E
:100A3800831203136A0883160313C800831203136F
:100A4800690883160313C700831203136808831603
:100A58000313C60083120313670883160313C50024
:100A6800D42D5608B90001300310B90DFF3E031DFF
:100A7800382D0310390D693E84000A168A110020AA
:100A88000A128A11F0000A168A1100200A128A1125
:100A9800F1000A168A1100200A128A11F2000A16B9
:100AA8008A1100200A128A11F3004808F700470843
:100AB800F6004608F5004508F4000A168A15BB2515
:100AC8000A128A11730883160313CE007208CD0028
:100AD8007108CC007008CB000030F3000030F20041
:100AE8000030F1000A30F0004E08F7004D08F6001B
:100AF8004C08F5004B08F4000A168A15AC240A12B3
:100B08008A11730883160313CE007208CD0071088A
:100B1800CC007008CB004F0884004B08303E831788
:100B280080000130FF007F08CF075608B900013068
:100B38000310B90DFF3E031D9C2D0310390D693EAE
:100B480084000A168A1100200A128A11F0000A1677
:100B58008A1100200A128A11F1000A168A1100204F
:100B68000A128A11F2000A168A1100200A128A1142
:100B7800F3004808F7004708F6004608F50045085E
:100B8800F4000A168A15AC240A128A11730883160F
:100B98000313C8007208C7007108C6007008C500B2
:100BA8000130D602560A031DDA2DDB2D352DEB2D2B
:100BB8004F0884003030831780000130FF007F0821
:100BC800CF07FF30D0070318D10AFF30D1075008EC
:100BD8005104031DF02DF12DDC2D352E5008510444
:100BE800031DF72DF82D062E480847044604450432
:100BF800031DFF2D002E062E0130D0070318D10A41
:100C08000030D1075108803A803C031D0D2E500852
:100C180056020318102E112E122E212E831603139E
:100C28005108803AB90080303902031D1D2E56083C
:100C380050020318202E212E212E03308316031371
:100C48004305B90000304405BA0039083A040319CD
:100C58002E2E2F2E352E4F0884002D30831780001E
:100C68003C280130B407FF30340784000A168A1183
:100C780000200A128A11D6005608031D442E452E5C
:100C880031284F0884008317800108000310720D73
:100C9800730D83120313A5002508031D542E552E2A
:100CA8005E2E0030F3000030F2000030F10000301A
:100CB800F000012F0310760D770DA4002408031D02
:100CC800662E672E682E552EF217FF30F005FF307E
:100CD800F105FF30F2050030F305F617FF30F40593
:100CE800FF30F505FF30F6050030F7050030A300AA
:100CF8000030A2000030A1000030A0007F30A50223
:100D0800A0302407F8007808A5022030A40001309C
:100D1800F8000310A00DA10DA20DA30DF80B8D2E48
:100D280077087302031DA22E76087202031DA22EF5
:100D380075087102031DA22E74087002031CA52EEB
:100D4800A62EB52E7408F0027508031C750FF10263
:100D58007608031C760FF2027708031C770FF3025C
:100D680020140130F8000310F00DF10DF20DF30D11
:100D7800F80BB72E0130A402031DC32EC42E8B2EF0
:100D8800A51FC72EC82EE22E2508803A9F3E0318BD
:100D9800CE2ECF2ED02E552E01300310A30CA20C30
:100DA800A10CA00CFF3E031DD12E0130FF007F08CF
:100DB800A507031DE02EE12ED02EF92E20302502A6
:100DC800031CE72EE82EF42E552E0130F8000310F0
:100DD800A00DA10DA20DA30DF80BEB2E0130A5025D
:100DE8002508031DF82EF92EE92E2308F300220802
:100DF800F2002108F1002008F0000800F800780847
:100E08000319072F082F1C2FF31F0B2F0C2F1C2F34
:100E18007009FA007109FB007209FC007309FD00F2
:100E2800FA0A0319FB0A0319FC0A0319FD0A242FFD
:100E38007308FD007208FC007108FB007008FA00D6
:100E48007308720471047004031D2B2F2C2F352F87
:100E58000030F3000030F2000030F1000030F00004
:100E6800B92F9630F900452F0130FF007F08F907A8
:100E780001300310FD0CFC0CFB0CFA0CFF3E031DAB
:100E88003D2FFE307D05031D4A2F4B2F382F672F2E
:100E98000130FF007F08F9070130FA070030031816
:100EA8000130FB07003003180130FC07003003183D
:100EB8000130FD0701300310FD0CFC0CFB0CFA0C93
:100EC800FF3E031D5F2FFF307D05031D6C2F6D2F27
:100ED8004C2F792F0130F9020130F4000310FA0D7C
:100EE800FB0DFC0DFD0DF40B722FFC1B7C2F7D2FD1
:100EF800832F023079020318822F832F6E2F7918DF
:100F0800862F872F8F2FFF30FA05FF30FB057F30A4
:100F1800FC05FF30FD050310F90C7908F400F50114
:100F2800F601F70118300310F40DF50DF60DF70D65
:100F3800FF3E031D972F7408FA047508FB04760812
:100F4800FC047708FD0478080319AB2FAC2FB12FE8
:100F5800F31FAF2FB02FB12FFD177D08F3007C08CA
:100F6800F2007B08F1007A08F0000800F901FA01A4
:100F7800750876040319C12FC22FF92FFB01FB0A4C
:100F8800D02F01300310F50DF60DFF3E031DC62FBF
:100F98000130FF007F08FB07F61FD32FD42FC52F82
:100FA80001300310F90DFA0DFF3E031DD52F760809
:100FB8007802031DE12F75087702031CE42FE52F43
:100FC800EC2F7508F7027608031CF803F802791469
:100FD80001300310F60CF50CFF3E031DED2F013018
:100FE800FB02031DF82FF92FD42F7A08F600790891
:040FF800F5000800F8
:1010060000307005F80000307105F9008030720577
:10101600FA007F307305FB007B087A0479047804B4
:10102600031D162817281F280030F3000030F20091
:101036000030F1000030F00000307405F800003098
:101046007505F90080307605FA007F307705FB00DC
:101056007B087A0479047804031D322833283B2858
:101066000030F7000030F6000030F5000030F400E4
:10107600F31F3E283F2863280030F8000030F900AF
:101086000030FA008030FB007008F8027108031C7B
:10109600710F4E284F28F9027208031C720F54284C
:1010A6005528FA027308031C730F5A285B28FB02A3
:1010B6007B08F3007A08F2007908F1007808F0005E
:1010C600F71F662867288B280030F8000030F900E3
:1010D6000030FA008030FB007408F8027508031C23
:1010E600750F76287728F9027608031C760F7C2878
:1010F6007D28FA027708031C770F82288328FB02D3
:101106007B08F7007A08F6007908F5007808F400FD
:101116008030F3068030F70677087302031D9D289A
:1011260076087202031D9D2875087102031D9D280D
:10113600740870020318A028A128A3280310A42865
:10114600031408007008F8007108F9007208FA0024
:101156000310790D7A0D83120313A5002508031DCC
:10116600B528B628BF280030F3000030F200003062
:10117600F1000030F0005B297408F8007508F900EA
:101186007608FA000310790D7A0DA4002408031DD1
:10119600CD28CE28CF28B628F117FF30F005FF302E
:1011A600F1050030F205F517FF30F405FF30F505BF
:1011B6000030F6050030A3000030A2000030A10088
:1011C6000030A0007F30A50298302407F800780888
:1011D600A5021830A4000130F8000310A00DA10DDF
:1011E600A20DA30DF80BF02876087202031D012943
:1011F60075087102031D012974087002031C042975
:10120600052910297408F0027508031C750FF102F0
:101216007608031C760AF202201401300310F00D42
:10122600F10DF20DFF3E031D11290130A402031D2D
:101236001D291E29EE28A51F212922293C2925081A
:10124600803A973E0318282929292A29B6280130E9
:101256000310A30CA20CA10CA00CFF3E031D2B290E
:101266000130FF007F08A507031D3A293B292A29DB
:10127600532918302502031C412942294E29B62834
:101286000130F8000310A00DA10DA20DA30DF80B5F
:1012960045290130A5022508031D52295329432952
:1012A6002308F3002208F2002108F1002008F000CC
:1012B6000800831203133D088039C7003D08C200A9
:1012C6004207CD00BC1F682969296A294D144D08BB
:1012D60003196E296F297E294D0A031D7329742966
:1012E6007C290030BD000030BC000030BB0000305F
:1012F600BA00BC1786290030BD000030BC000030A3
:10130600BB000030BA0041088039FF007F08C706DD
:101316004108C2004207CC00C01F92299329942994
:101326004C144C08031998299929A8294C0A031D1D
:101336009D299E29A6290030C1000030C00000303A
:10134600BF000030BE00C017B0290030C100003019
:10135600C0000030BF000030BE004C080319B4299D
:10136600B529BA294D08031DB929BA29C329003060
:10137600BD000030BC000030BB000030BA00A02C1D
:101386003A08F00040080A168A11BB200A128A158C
:10139600710883120313D3007008D2005208C200EA
:1013A600C301C401C5014508CB004408CA0043086F
:1013B600C9004208C8005308C200C301C401C501E0
:1013C6004508D1004408D0004308CF004208CE00AB
:1013D6003B08F0003F080A168A11BB200A128A153C
:1013E600710883120313D3007008D2005208C2009A
:1013F600C301C401C5014208C80743080311031805
:10140600013E0319072AC907440803110318013EC0
:1014160003190E2ACA07450803110318013E0319CA
:10142600152ACB075308C200C301C401C5014208EF
:10143600CE07430803110318013E0319232ACF07D9
:10144600440803110318013E03192A2AD007450848
:1014560003110318013E0319312AD1073C08F00095
:101466003E080A168A11BB200A128A1571088312D1
:101476000313D3007008D2005208C200C301C4018E
:10148600C5014208C807430803110318013E0319A2
:101496004D2AC907440803110318013E0319542AAB
:1014A600CA07450803110318013E03195B2ACB0737
:1014B6005308C200C301C401C5014208CE07430850
:1014C60003110318013E0319692ACF0744080311C3
:1014D6000318013E0319702AD007450803110318A3
:1014E600013E0319772AD1070830C2000310C80D40
:1014F600C90DCA0DCB0DC20B792A3B08F0003E0878
:101506000A168A11BB200A128A1571088312031360
:10151600D3007008D2005208C2005308C300C401A9
:10152600C5014208C807430803110318013E031901
:101536009D2AC907440803110318013E0319A42A6A
:10154600CA07450803110318013E0319AB2ACB0746
:101556003A08F0003F080A168A11BB200A128A15BB
:10156600710883120313D3007008D2005208C20018
:101576005308C300C401C5014208C8074308031144
:101586000318013E0319C82AC907440803110318A2
:10159600013E0319CF2ACA07450803110318013E65
:1015A6000319D62ACB070830C2000310C80DC90D8F
:1015B600CA0DCB0DC20BD82A3A08F0003E080A160F
:1015C6008A11BB200A128A15710883120313D300ED
:1015D6007008D2005208C2005308C300C401C501F6
:1015E6004208C807430803110318013E0319FC2AE1
:1015F600C907440803110318013E0319032BCA0740
:10160600450803110318013E03190A2BCB073B08B3
:10161600F00040080A168A11BB200A128A157108C2
:1016260083120313D3007008D2005208C200530875
:10163600C300C401C5014208CE07430803110318BD
:10164600013E0319272BCF07440803110318013E57
:1016560003192E2BD007450803110318013E031961
:10166600352BD1073C08F0003F080A168A11BB202B
:101676000A128A15710883120313D3007008D20068
:101686005208C2005308C300C401C5014208CE0770
:10169600430803110318013E0319522BCF074408D0
:1016A60003110318013E0319592BD00745080311EE
:1016B6000318013E0319602BD1073C08F0004008CF
:1016C6000A168A11BB200A128A157108831203139F
:1016D600D3007008D2005208C2005308C300C401E8
:1016E600C50108300310C20DC30DC40DC50DFF3E64
:1016F600031D752B4208CE07430803110318013E4C
:101706000319862BCF07440803110318013E03195A
:101716008D2BD007450803110318013E0319942B9E
:10172600D1074808C2004908C3004A08C4004B084C
:10173600C50018300310C50CC40CC30CC20CFF3E08
:10174600031D9D2B4208CE07430803110318013ED3
:101756000319AE2BCF07440803110318013E0319E2
:10176600B52BD007450803110318013E0319BC2BFE
:10177600D1070830C2000310C80DC90DCA0DCB0D24
:10178600C20BBE2B4D084C07C200C301C30D420855
:10179600823ED20043080318013EFF3ED300F02BE1
:1017A6000130C2000310CE0DCF0DD00DD10DC20BEE
:1017B600D52BCB1FDF2BE02BE12B4E140130C200C3
:1017C6000310C80DC90DCA0DCB0DC20BE32BFF309C
:1017D600D2070318D30AFF30D307D01FF32BF42BFD
:1017E600D32BCC01CB1FF82BF92B152CFF3048053A
:1017F600C200FF304905C300FF304A05C4007F30F0
:101806004B05C500450844044304420403190C2C47
:101816000D2C102CCC01CC0A152C4E1C132C142C80
:10182600152C0D2C4C080319192C1A2C4B2C013095
:10183600CE07003003180130CF07003003180130FF
:10184600D007003003180130D107511C2B2C2C2C4B
:101856004B2C4E08C2004F08C3005008C400510864
:10186600C5000130C600450DC50CC40CC30CC20C26
:10187600C60B362C4508D1004408D0004308CF00DB
:101886004208CE000130D2070318D30A0030D3072E
:101896005308803AFF0080307F02031D542CFF302E
:1018A6005202031C572C582C632C7F3083120313CF
:1018B600D1008030D0000030CF000030CE00942C14
:1018C600831203135308803AFF0080307F02031D02
:1018D6006E2C013052020318712C722C7E2C0030B3
:1018E60083120313D1000030D0000030CF00003047
:1018F600CE00C701942C831203135208CD00FF308B
:10190600CE05FF30CF057F30D0050030D1054D1C08
:101916008D2C8E2C8F2CD0174D08C2000310420C34
:10192600D1004708FF007F08D1045108BD005008C8
:10193600BC004F08BB004E08BA0008008312031310
:10194600E600E61FA72CA82C552EE609E60A66082F
:10195600803A123E031CB02CB12C992D0A30F600A9
:101966000030F7006608F200F301F21BF30364305F
:10197600F0000030F1000A168A1500250A128A15B1
:101986007108F9007008F8000A168A1521260A124D
:101996008A15760883120313D80001300310D80D78
:1019A600FF3E031DD12C0310580D593E84000A1624
:1019B6008A1100200A128A15D9000A168A110020F7
:1019C6000A128A15DA000A168A1100200A128A15E6
:1019D600DB000A168A1100200A128A15DC005C0850
:1019E600BD005B08BC005A08BB005908BA00643049
:1019F600F6000030F7006608F800F901F81BF90355
:101A06000A168A1521260A128A15760883120313E6
:101A1600DD0001300310DD0DFF3E031D0D2D03100B
:101A26005D0D7D3E84000A168A1100200A128A1571
:101A3600DE000A168A1100200A128A15DF000A162D
:101A46008A1100200A128A15E0000A168A1100205F
:101A56000A128A15E1006108C1006008C0005F082B
:101A6600BF005E08BE000A128A155C210A128A159A
:101A7600831203133D08E5003C08E4003B08E3003D
:101A86003A08E2000A30F0000030F1006608F20081
:101A9600F301F21BF3030A168A1500250A128A15AA
:101AA600700883120313D80001300310D80DFF3ECF
:101AB600031D582D0310580D353E84000A168A1151
:101AC60000200A128A15D9000A168A1100200A1265
:101AD6008A15DA000A168A1100200A128A15DB0016
:101AE6000A168A1100200A128A15DC005C08BD005D
:101AF6005B08BC005A08BB005908BA006508C1005B
:101B06006408C0006308BF006208BE000A128A1596
:101B16005C210A128A15831203133D08D7003C087C
:101B2600D6003B08D5003A08D400FF2F6608803A55
:101B3600753E031C9F2DA02D282E0A30F000003084
:101B4600F1006608F200F301F21BF3030A168A1588
:101B560000250A128A15700883120313D800013073
:101B66000310D80DFF3E031DB32D0310580D353E4F
:101B760084000A168A1100200A128A15D9000A164C
:101B86008A1100200A128A15DA000A168A11002024
:101B96000A128A15DB000A168A1100200A128A1513
:101BA600DC005C08BD005B08BC005A08BB00590895
:101BB600BA000A30F6000030F7006608F800F901AE
:101BC600F81BF9030A168A1521260A128A157608C1
:101BD60083120313DD0001300310DD0DFF3E031DEC
:101BE600EF2D03105D0D593E84000A168A11002060
:101BF6000A128A15DE000A168A1100200A128A15B0
:101C0600DF000A168A1100200A128A15E0000A1659
:101C16008A1100200A128A15E1006108C1006008D5
:101C2600C0005F08BF005E08BE000A128A155C216C
:101C36000A128A15831203133D08D7003C08D60002
:101C46003B08D5003A08D400FF2F6608D8000130BB
:101C56000310D80DFF3E031D2B2E0310580D353EE5
:101C660084000A168A1100200A128A15D9000A165B
:101C76008A1100200A128A15DA000A168A11002033
:101C86000A128A15DB000A168A1100200A128A1522
:101C9600DC005C08D7005B08D6005A08D500590856
:101CA600D400FF2F6608803A123E031C5B2E5C2E82
:101CB600442F0A30F6000030F7006608F200F30100
:101CC600F21BF3036430F0000030F1000A168A15A7
:101CD60000250A128A157108F9007008F8000A161C
:101CE6008A1521260A128A15760883120313D8004C
:101CF60001300310D80DFF3E031D7C2E0310580D36
:101D0600253E84000A168A1100200A128A15D90077
:101D16000A168A1100200A128A15DA000A168A1192
:101D260000200A128A15DB000A168A1100200A1200
:101D36008A15DC005C08BD005B08BC005A08BB00C5
:101D46005908BA006430F6000030F7006608F8005B
:101D5600F901F81BF9030A168A1521260A128A15B3
:101D6600760883120313DD0001300310DD0DFF3EFC
:101D7600031DB82E03105D0D493E84000A168A1114
:101D860000200A128A15DE000A168A1100200A129D
:101D96008A15DF000A168A1100200A128A15E00049
:101DA6000A168A1100200A128A15E1006108C1008C
:101DB6006008C0005F08BF005E08BE000A128A15F0
:101DC6005C210A128A15831203133D08E5003C08BC
:101DD600E4003B08E3003A08E2000A30F000003075
:101DE600F1006608F200F301F21BF3030A168A15E6
:101DF60000250A128A15700883120313D8000130D1
:101E06000310D80DFF3E031D032F0310580D013E8E
:101E160084000A168A1100200A128A15D9000A16A9
:101E26008A1100200A128A15DA000A168A11002081
:101E36000A128A15DB000A168A1100200A128A1570
:101E4600DC005C08BD005B08BC005A08BB005908F2
:101E5600BA006508C1006408C0006308BF006208D4
:101E6600BE000A128A155C210A128A158312031310
:101E76003D08D7003C08D6003B08D5003A08D400F8
:101E8600FF2F6608803A753E031C4A2F4B2FD32F2F
:101E96000A30F0000030F1006608F200F301F21B90
:101EA600F3030A168A1500250A128A15700883128A
:101EB6000313D80001300310D80DFF3E031D5E2F1B
:101EC6000310580D013E84000A168A1100200A12DA
:101ED6008A15D9000A168A1100200A128A15DA0014
:101EE6000A168A1100200A128A15DB000A168A11C0
:101EF60000200A128A15DC005C08BD005B08BC00E5
:101F06005A08BB005908BA000A30F6000030F7003C
:101F16006608F800F901F81BF9030A168A15212646
:101F26000A128A15760883120313DD0001300310A6
:101F3600DD0DFF3E031D9A2F03105D0D253E840027
:101F46000A168A1100200A128A15DE000A168A115C
:101F560000200A128A15DF000A168A1100200A12CA
:101F66008A15E0000A168A1100200A128A15E10075
:101F76006108C1006008C0005F08BF005E08BE00BF
:101F86000A128A155C210A128A15831203133D0868
:101F9600D7003C08D6003B08D5003A08D400FF2FEE
:101FA6006608D80001300310D80DFF3E031DD62F5A
:101FB6000310580D013E84000A168A1100200A12E9
:101FC6008A15D9000A168A1100200A128A15DA0023
:101FD6000A168A1100200A128A15DB000A168A11CF
:101FE60000200A128A15DC005C08D7005B08D600C0
:101FF6005A08D5005908D400080010308A00040891
:10200600840A820700340034003480343F340034BC
:1020160000342034413400340034C83442340034AF
:1020260000347A344434003440341C3446340034AA
:102036005034C3344734003424347434493480343F
:10204600963418344B342034BC34BE344C342834E3
:102056006B346E344E34F934023415345034EC3467
:102066007834AD346034CA34F234493471340034CF
:10207600003480343F34CD34CC34CC343D340A344F
:10208600D73423343C346F34123483343A3417341F
:10209600B734D1343834AC34C53427343734BD344E
:1020A6003734863435349534BF34D63433347734C4
:1020B600CC342B3432345F34703489343034FF34CA
:1020C600E634DB342E340834E5343C341E346034D4
:1020D6004234A2340D3401340034003400340A345E
:1020E6000034003400346434003400340034E834FE
:1020F6000334003400341034273400340034A03460
:10210600863401340034403442340F340034803491
:102116009634983400340034E134F5340534003410
:10212600CA349A343B344434693473347434613475
:102136006E3463346534203474346F3420346F3431
:10214600623473347434613463346C3465343A34D1
:10215600203425342E3433346634203463346D34DD
:042166000A34003403
:10217600F800F401F5017008F200F3017208F600A8
:102186007308F700781CC828C928CF287608F407F2
:102196000318F50A7708F50701300310F60DF70D59
:1021A600FF3E031DD0280310F80C7808031DDC2819
:1021B600DD28C5287508F1007408F00008008312B0
:1021C600031327088039B1002708A8002807B8009C
:1021D600A61FEE28EF28F028381438080319F4282B
:1021E600F5280529380A031DF928FA28022900309E
:1021F600A7000030A6000030A5000030A400A617F6
:10220600A7010D290030A7000030A6000030A50068
:102216000030A40023088039FF007F08B106230898
:10222600A8002807B900A21F19291A291B29391441
:10223600390803191F2920293029390A031D2429A1
:1022460025292D290030A3000030A2000030A1006E
:102256000030A000A217A30138290030A3000030E7
:10226600A2000030A1000030A000230822042104AF
:102276002004031D3F29402959290030A7000030BA
:10228600A6000030A5000030A4008030A6047F30F0
:10229600A7043108FF007F08A7042708A300260823
:1022A600A2002508A1002408A000B02A3808031DB2
:1022B6005D295E2967290030A3000030A2000030A6
:1022C600A1000030A000B02A3808A800A9012908FA
:1022D600AB0039082802AA00031CAB032A087F3E7C
:1022E600B2002B080318013E003EB3002708B000D9
:1022F6002608AF002508AE002408AD000030A70070
:102306000030A6000030A5000030A4000030B70061
:102316000030B6000030B5000030B400B901DD2948
:102326003908031997299829B8290130A8000310FC
:10233600AD0DAE0DAF0DB00DA80B9A290130A8005A
:102346000310A40DA50DA60DA70DA80BA329B71F55
:10235600AD29AE29AF2924140130A8000310B40D0D
:10236600B50DB60DB70DA80BB12923083002031D14
:10237600C62922082F02031DC62921082E02031D85
:10238600C62920082D02031CC929CA29D9293717AD
:102396002008AD022108031C210FAE022208031CEF
:1023A600220FAF022308031C230FB0020130FF00E7
:1023B6007F08B9071A303902031CE229E329932959
:1023C60030082F042E042D040319EA29EB290A2AC2
:1023D60034140A2A0130A8000310A40DA50DA60D79
:1023E600A70DA80BEF29B71FF929FA29FB292414F1
:1023F6000130A8000310B40DB50DB60DB70DA80B2E
:10240600FD29FF30B2070318B30AFF30B307A61F32
:102416000D2A0E2AED29B901B71F122A132A2F2ACF
:10242600FF303405A800FF303505A900FF3036051A
:10243600AA007F303705AB002B082A04290428049C
:102446000319262A272A2A2AB901B90A2F2A241C5F
:102456002D2A2E2A2F2A272A39080319332A342A05
:10246600652A0130A407003003180130A5070030A3
:1024760003180130A607003003180130A707271CF0
:10248600452A462A652A2408A8002508A900260800
:10249600AA002708AB000130AC002B0DAB0CAA0C30
:1024A600A90CA80CAC0B502A2B08A7002A08A600DA
:1024B6002908A5002808A4000130B2070318B30AAA
:1024C6000030B3073308803AFF0080307F02031DD7
:1024D6006E2AFF303202031C712A722A802AFF30CC
:1024E60083120313B2000030B3000030A70000309F
:1024F600A6000030A5000030A400831203133308A1
:10250600803AFF0080307F02031D8B2A01303202A1
:1025160003188E2A8F2A9C2A83120313B201B30151
:102526000030A7000030A6000030A5000030A4004F
:10253600B101831203133208B800381CA32AA42A57
:10254600A62AA617AA2A7F30FF007F08A605380804
:10255600A8000310280CA7004C29080083120313B7
:10256600E7006E306702031CB92ABA2AC72B3F3030
:10257600BD000030BC000030BB000030BA00643043
:10258600F5000030F6006708D800D9015808F700B2
:102596005908F8000A128A11BA270A168A1175080C
:1025A60083120313DA0001300310DA0DFF3E031D18
:1025B600D72A03105A0D7D3E84000A168A11002080
:1025C6000A168A11DB000A168A1100200A168A11D9
:1025D600DC000A168A1100200A168A11DD000A1686
:1025E6008A1100200A168A11DE005E08C1005D0805
:1025F600C0005C08BF005B08BE000A128A155C2199
:102606000A168A11831203133D08E6003C08E5000A
:102616003B08E4003A08E3000A30F5000030F60013
:102626006708D800D9015808F2005908F300643049
:10263600F0000030F1000A168A1580230A168A1166
:102646007108F8007008F7000A128A11BA270A16EC
:102656008A11750883120313DA0001300310DA0DAC
:10266600FF3E031D312B03105A0D593E84000A16F6
:102676008A1100200A168A11DB000A168A11002028
:102686000A168A11DC000A168A1100200A168A1117
:10269600DD000A168A1100200A168A11DE005E087D
:1026A600BD005D08BC005C08BB005B08BA0066089C
:1026B600C1006508C0006408BF006308BE000A12B6
:1026C6008A155C210A168A11831203133D08E2005B
:1026D6003C08E1003B08E0003A08DF000A30F00061
:1026E6000030F1006708D800D9015808F2005908EF
:1026F600F3000A168A1580230A168A1170088312B7
:102706000313DA0001300310DA0DFF3E031D862B9A
:1027160003105A0D353E84000A168A1100200A1647
:102726008A11DB000A168A1100200A168A11DC00BB
:102736000A168A1100200A168A11DD000A168A1165
:1027460000200A168A11DE005E08BD005D08BC0086
:102756005C08BB005B08BA006208C1006108C000E3
:102766006008BF005F08BE000A128A155C210A16BF
:102776008A11831203133D08D7003C08D6003B0894
:10278600D5003A08D400BB2C0B306702031CCC2BB7
:10279600CD2B782C3F30BD000030BC000030BB0094
:1027A6000030BA000A30F5000030F6006708D8009D
:1027B600D9015808F7005908F8000A128A11BA27F1
:1027C6000A168A11750883120313DA000130031002
:1027D600DA0DFF3E031DEA2B03105A0D593E840005
:1027E6000A168A1100200A168A11DB000A168A11B7
:1027F60000200A168A11DC000A168A1100200A1621
:102806008A11DD000A168A1100200A168A11DE00D6
:102816005E08C1005D08C0005C08BF005B08BE0022
:102826000A128A155C210A168A11831203133D08BF
:10283600E6003C08E5003B08E4003A08E3000A30FD
:10284600F0000030F1006708D800D9015808F200FE
:102856005908F3000A168A1580230A168A11700889
:1028660083120313DA0001300310DA0DFF3E031D55
:10287600372C03105A0D353E84000A168A110020A3
:102886000A168A11DB000A168A1100200A168A1116
:10289600DC000A168A1100200A168A11DD000A16C3
:1028A6008A1100200A168A11DE005E08BD005D0846
:1028B600BC005C08BB005B08BA006608C10065087E
:1028C600C0006408BF006308BE000A128A155C21B6
:1028D6000A168A11831203133D08D7003C08D60056
:1028E6003B08D5003A08D400BB2C3F30BD00003071
:1028F600BC000030BB000030BA006708D8000130C9
:102906000310D80DFF3E031D832C0310580D353ED2
:1029160084000A168A1100200A168A11D9000A169E
:102926008A1100200A168A11DA000A168A11002076
:102936000A168A11DB000A168A1100200A168A1165
:10294600DC005C08C1005B08C0005A08BF005908DB
:10295600BE000A128A155C210A168A118312031315
:102966003D08D7003C08D6003B08D5003A08D400FD
:102976000800831203136B08803983160313A8001B
:10298600831203136B0883160313A0002007AA0003
:1029960083120313EA1FD02CD12CD42C83160313D5
:1029A6002A14831603132A080319DA2CDB2CEE2CBF
:1029B6002A0A031DDF2CE02CEA2C003083120313B5
:1029C600EB000030EA000030E9000030E800831236
:1029D600EA17EB01F82C003083120313EB000030EA
:1029E600EA000030E9000030E8006F0880398316FD
:1029F6000313A900290828060319022D032D042D07
:102A06002817831203136F0883160313A0002007E9
:102A1600A90083120313EE1F112D122D152D8316F7
:102A26000313291483160313290803191B2D1C2DC0
:102A36002F2D290A031D202D212D2B2D0030831229
:102A46000313EF000030EE000030ED000030EC0024
:102A56008312EE17EF01392D003083120313EF00B6
:102A66000030EE000030ED000030EC00831603135A
:102A76002A0829020318402D412D892D281F442D8F
:102A8600452D492D8030FF007F08A8062A08AB0097
:102A96002908AA002B08A9008312031368088316C5
:102AA6000313AB00831203136C08E80083160313A9
:102AB6002B0883120313EC00690883160313AB007B
:102AC600831203136D08E900831603132B08831280
:102AD6000313ED006A0883160313AB008312031376
:102AE6006E08EA00831603132B0883120313EE0005
:102AF6006B0883160313AB00831203136F08EB00F6
:102B0600831603132B0883120313EF008316031394
:102B1600AB012908A000A1012108A3002A08200270
:102B2600A200031CA3032308803AFF0080307F0223
:102B3600031D9F2D1A302202031CA22DA32DEA2D60
:102B4600831203136B086A0469046804031DAC2D21
:102B5600AE2D0130AF2D003083160313AB000030CD
:102B660083120313EB000030EA000030E900003066
:102B7600E800831603132908AA00F22D2B1CC42D86
:102B8600C52DCC2D2B08A0000310200C0138AB005E
:102B9600CE2D0310AB0C83120313681CD32DD42D3A
:102BA600D72D83160313AB17013083160313A0002A
:102BB600831203136B0DEB0CEA0CE90CE80C83167D
:102BC6000313A00BDB2D0130FF007F08AA07831635
:102BD600031329082A02031CF12DF22DC12D281BEF
:102BE600F52DF62D4F2E2A08031DFA2DFB2D062E48
:102BF600003083120313EB000030EA000030E900D6
:102C06000030E800FF2F831203136C08E8076D08F5
:102C160003110318013E0319112EE9076E0803116B
:102C26000318013E0319182EEA076F08031103184B
:102C3600013E03191F2EEB076B1C222E232E4D2F50
:102C4600831603132B1C282E292E302E2B08A000AA
:102C56000310200C0138AB00322E0310AB0C83128C
:102C66000313681C372E382E3B2E83160313AB171F
:102C7600013083160313A000831203136B0DEB0CB4
:102C8600EA0CE90CE80C83160313A00B3F2E013067
:102C9600FF007F08AA074D2F831203136B08803AA3
:102CA600FF006F08803A7F02031D632E6E086A02DA
:102CB600031D632E6D086902031D632E6C086802EE
:102CC6000318662E672EF72EFF3083160313A00017
:102CD600FF30A100FF30A200FF30A30083120313D0
:102CE6006C0883160313A400831203136D0883165E
:102CF6000313A500831203136E0883160313A6009D
:102D0600831203136F0883160313A700831203139A
:102D1600680883160313A402831203136908031CAD
:102D2600690F962E992E83160313A5028312031399
:102D36006A08031C6A0FA02EA32E83160313A6028D
:102D4600831203136B08031C6B0FAA2EAD2E83167A
:102D56000313A70283120313831603132408A00781
:102D660025080318250FB82EB92EA1072608031823
:102D7600260FBE2EBF2EA20727080318270AA30771
:102D8600230883120313EB0083160313220883120E
:102D96000313EA0083160313210883120313E900C1
:102DA60083160313200883120313E8008030FF0004
:102DB6007F0883160313A806AB09AB0A2B08031D6D
:102DC600E52EE62E052F013083120313E8070030A7
:102DD60003180130E907003003180130EA07003014
:102DE60003180130EB07052F6C08E8026D08031C79
:102DF6006D0FE9026E08031C6E0FEA026F08031CD2
:102E06006F0FEB0283126B086A0469046804031DE2
:102E16000D2F0E2F482F831603132B08031D142F77
:102E2600152F482F003083120313EB000030EA0001
:102E36000030E9000030E800FF2F0130831603134D
:102E4600A000031083120313E80DE90DEA0DEB0D44
:102E560083160313A00B242FAB1F322F332F362FCD
:102E6600831203136814831603132B1C3B2F3C2F6A
:102E76003F2F0314AB0D412F0310AB0D2A08031986
:102E8600452F462F482F0130AA028312EA1F4C2FE6
:102E96004D2F202F83160313A901AB1F532F542F39
:102EA600662F2B087F390319592F5A2F5F2F831648
:102EB6000313A901A90A662F83120313681C642F42
:102EC600652F662F5A2F83160313290803196C2FB3
:102ED6006D2FC12F013083120313E807003003184A
:102EE6000130E907003003180130EA070030031803
:102EF6000130EB076B1C802F812FC12F68088316CA
:102F06000313A00083120313690883160313A10099
:102F1600831203136A0883160313A2008312031392
:102F26006B0883160313A3000130A400230DA30C22
:102F3600A20CA10CA00CA40B992F23088312031337
:102F4600EB0083160313220883120313EA00831689
:102F56000313210883120313E900831603132008C1
:102F660083120313E800831603132A0A0319BC2FDE
:102F7600BD2FC12F0130FF007F08AA078316031358
:102F86002A0A0319C72FC82FCD2F2A08031DCC2FB5
:102F9600CD2FDF2F003083120313EB000030EA0041
:102FA6000030E9000030E800831603132A08031DE9
:102FB600DD2FDE2FDF2FA8012A1CE22FE32FE72FBC
:102FC60083120313EA17ED2F7F30FF007F08831269
:102FD6000313EA05831603132A08A0000310200C26
:102FE60083120313EB0083160313A81FFB2FFC2F7A
:0A2FF600FF2F83120313EB170800EE
:10349C00F030FF007F088312031397050800831692
:1034AC000313081083120313081008006400800132
:1034BC00840A04060319003404065D2A83120313DC
:1034CC000C11831603130C150B178B1708008312A2
:1034DC0003138E018F01901090121012101408001B
:1034EC00831603136208F3006108F2006008F10010
:1034FC005F08F0000800730872047104700403196B
:10350C00882A892A8B2A8030F30608000A168A1525
:10351C0055220A168A150A168A15F3220A168A15D6
:10352C000800F00083160313981C9D2A9E2A982AE3
:10353C0070088312031399000800831203130814F4
:10354C000D30F000F00BA82A8312031308108E0123
:10355C008F010800831603130C110A168A154E22CC
:10356C000A168A15831203131715831603130C15E9
:10357C000800831603130717871783120313981772
:10358C008316031318121813981618156730990020
:10359C000800831603130C110A168A154E220A16FC
:1035AC008A150530FF007F088312031397048316D6
:1035BC0003130C150800F100F0013A3071020318E6
:1035CC00E82AE92AF12A30307102031CEE2AEF2A8C
:1035DC00F12AF001F00A700C08000A168A156D2207
:1035EC000A168A15831603130715831203139711F2
:1035FC001715971017140A168A1564220A168A15BD
:10360C0008008312031381018316031381128111A5
:10361C00831603173608B4003508B3000A168A154A
:10362C0059250A168A150B118B168B1708000630B4
:10363C00831203138100103083160317B50000307A
:10364C00B6000A168A1507230A168A150A168A1551
:10365C008C220A168A150A168A15BF220A168A1592
:10366C00362B0A128A111228F400F201F3014F2BA7
:10367C0072087407F1007108840000080A168A1594
:10368C0097220A168A150130F2070318F30A003044
:10369C00F30772087407F10071088400831700089F
:1036AC00031D592B5A2B3E2B0800F401F501701CFD
:1036BC00602B612B672B7208F4070318F50A73084B
:1036CC00F50701300310F20DF30DFF3E031D682BBF
:1036DC0001300310F10CF00CFF3E031D6F2B700832
:1036EC007104031D7A2B7B2B5D2B7508F10074087C
:1036FC00F0000800700871040319852B862BB52B7C
:10370C00F401F40A942B01300310F00DF10DFF3E7F
:10371C00031D8A2B0130FF007F08F407F11F972B44
:10372C00982B892B71087302031D9E2B7008720253
:10373C00031CA12BA22BA82B7008F2027108031CEE
:10374C00F303F30201300310F10CF00CFF3E031DE8
:10375C00A92B0130F402031DB42BB52B982B730845
:10376C00F1007208F000080000307005F80000301D
:10377C007105F90080307205FA007F307305FB008B
:10378C007B087A0479047804031DCD2BCE2BD62B21
:10379C000030F3000030F2000030F1000030F00097
:1037AC0000307405F80000307505F900803076059E
:1037BC00FA007F307705FB007B087A0479047804E3
:1037CC00031DE92BEA2BF22B0030F7000030F6003A
:1037DC000030F5000030F40077087306031D002C50
:1037EC0076087206031D002C75087106031D002C4B
:1037FC00740870060319032C042C062C0310072CD8
:10380C0003140800803083160313AF0633088312A9
:10381C000313EB0083160313320883120313EA001D
:10382C0083160313310883120313E9008316031361
:10383C00300883120313E800831603132F08831236
:10384C000313EF00831603132E0883120313EE00E9
:10385C00831603132D0883120313ED008316031331
:10386C002C0883120313EC000A168A11BC240A16C6
:10387C008A15831203136B0883160313AF0083128C
:10388C0003136A0883160313AE008312031369082B
:10389C0083160313AD0083120313680883160313F6
:1038AC00AC000800831603136A08031D5E2C5F2C02
:1038BC00752C83120313160883160313E800831266
:1038CC000313150883160313E7000A168A15B02292
:1038DC000A168A1583160313EA01EA0AAB2C6A034B
:1038EC00031D792C7A2CAB2C831203131608831628
:1038FC000313E60083120313150883160313E50064
:10390C000A168A1588260A168A1583120313570875
:10391C0083160313E2008312031356088316031352
:10392C00E10083120313550883160313E00083127E
:10393C000313540883160313DF000A168A15CF22CB
:10394C000A168A1583160313EA0108007308720419
:10395C00710470040319B32CB42CF72CF901F90A77
:10396C00C42C0130F8000310F00DF10DF20DF30D25
:10397C00F80BB92C0130FF007F08F907F31FC72C97
:10398C00C82CB72C73087702031DD62C720876024C
:10399C00031DD62C71087502031DD62C70087402F9
:1039AC00031CD92CDA2CE82C7008F4027108031CC7
:1039BC00710FF5027208031C720FF6027308031CD8
:1039CC00730FF70201300310F30CF20CF10CF00C36
:1039DC00FF3E031DE92C0130F902031DF62CF72CD8
:1039EC00C82C7708F3007608F2007508F10074080B
:1039FC00F0000800F501F31F042D052D0C2DF20924
:103A0C00F309F20A0319F30AF501F50AF11F0F2D58
:103A1C00102D152DF009F109F00A0319F10A70089F
:103A2C00710403191A2D1B2D4A2DF401F40A292DAA
:103A3C0001300310F00DF10DFF3E031D1F2D013061
:103A4C00FF007F08F407F11F2C2D2D2D1E2D710862
:103A5C007302031D332D70087202031C362D372D93
:103A6C003D2D7008F2027108031CF303F3020130C0
:103A7C000310F10CF00CFF3E031D3E2D0130F4023F
:103A8C00031D492D4A2D2D2D750803194E2D4F2D33
:103A9C00542DF209F309F20A0319F30A7308F10021
:103AAC007208F0000800912D831603138115011183
:103ABC0081100110BA2D831603130111811001100E
:103ACC00BA2D83160313011181100114BA2D83161C
:103ADC000313011181140110BA2D83160313011164
:103AEC0081140114BA2D83160313011581100110D2
:103AFC00BA2D83160313011581100114BA2D8316E8
:103B0C000313011581140110BA2D8316031301152B
:103B1C0081140114BA2D831603173408003A0319C3
:103B2C009B2D013A0319B52DBA2D3308013A03190F
:103B3C005A2D033A0319612D063A0319672D0C3AD5
:103B4C0003196D2D183A0319732D303A0319792D79
:103B5C00603A03197F2DC03A0319852DBA2D33080D
:103B6C00003A03198B2DBA2D08000030FC000030F0
:103B7C00FB000030FA000030F90073087204710485
:103B8C0070040319CA2DCB2D182EFD01FD0ADB2D57
:103B9C000130F8000310F00DF10DF20DF30DF80BE0
:103BAC00D02D0130FF007F08FD07F31FDE2DDF2D28
:103BBC00CE2D0130F8000310F90DFA0DFB0DFC0DA4
:103BCC00F80BE12D73087702031DF62D72087602AF
:103BDC00031DF62D71087502031DF62D7008740275
:103BEC00031CF92DFA2D092E7008F4027108031C20
:103BFC00710FF5027208031C720FF6027308031C96
:103C0C00730FF702791401300310F30CF20CF10C62
:103C1C00F00CFF3E031D0A2E0130FD02031D172E72
:103C2C00182EDF2D7C08F3007B08F2007A08F100D7
:103C3C007908F0000800FB01F71F252E262E2D2EEB
:103C4C00F609F709F60A0319F70AFB01FB0AF91F33
:103C5C00302E312E3A2EF809F909F80A0319F90A0F
:103C6C000130FF007F08FB06FC01FD01760877049C
:103C7C000319412E422E792EFA01FA0A502E0130E8
:103C8C000310F60DF70DFF3E031D462E0130FF000D
:103C9C007F08FA07F71F532E542E452E01300310C0
:103CAC00FC0DFD0DFF3E031D552E77087902031DFB
:103CBC00612E76087802031C642E652E6C2E760815
:103CCC00F8027708031CF903F9027C140130031085
:103CDC00F70CF60CFF3E031D6D2E0130FA02031D8E
:103CEC00782E792E542E7B0803197D2E7E2E832E52
:103CFC00FC09FD09FC0A0319FD0A7D08F7007C0884
:103D0C00F6000800003083120313BD000030BC0025
:103D1C000030BB000030BA004030A3000030A200DD
:103D2C000030A1000030A000831603136708650261
:103D3C00F0006808031C680A6602F100F201F30146
:103D4C0000300A128A1102270A168A157308831288
:103D5C000313A7007208A6007108A5007008A40040
:103D6C000A168A11E2200A168A15831203132308F5
:103D7C00C1002208C0002108BF002008BE000A12A2
:103D8C008A155C210A168A15831203133D08DB0081
:103D9C003C08DA003B08D9003A08D8004730BD008F
:103DAC000430BC00D030BB000030BA005B08C1004E
:103DBC005A08C0005908BF005808BE000A128A15DC
:103DCC005C210A168A15831203133D08DF003C0898
:103DDC00DE003B08DD003A08DC005F08D7005E0817
:103DEC00D6005D08D5005C08D40008000B1DFF2E22
:103DFC00002F572F06308312031381000130FF0070
:103E0C007F0883160313E90765306906031D0F2F1E
:103E1C00102F562FE9010A168A15A3220A168A15A5
:103E2C000A168A1576220A168A1573088316031346
:103E3C00DE007208DD007108DC007008DB00003069
:103E4C00F3000030F2000030F1000030F0005E08AA
:103E5C00F7005D08F6005C08F5005B08F4000A1238
:103E6C008A1503200A168A1503183D2F3E2F562F4C
:103E7C00913083160313B4005E08B8005D08B700D8
:103E8C005C08B6005B08B50090300A128A112B2032
:103E9C000A168A1590300A168A153A230A168A15BC
:103EAC000B11831203130C1D5C2F5D2F652F0A164B
:103EBC008A1558240A168A15831203130C118316BB
:103ECC0003135A08FF0059088A0058088400570E3B
:103EDC008300FE0E7E0E0900031083120313690D7E
:103EEC006A0D83160313A1002108031D7E2F7F2F5B
:103EFC008A2F003083120313EA000030E9000030EF
:103F0C00E8000030E700FF2F831203136708EB0073
:103F1C006808EC006908ED006A08EE001F30031019
:103F2C00EE0CED0CEC0CEB0CFF3E031D952F6B080F
:103F3C0083160313A00083120313E917FF30E70560
:103F4C00FF30E805FF30E9050030EA0596308316AE
:103F5C000313A102A11FB32FB42FD22F2108803A33
:103F6C00973E0318BA2FBB2FBC2F7F2F01300310A5
:103F7C0083120313EA0CE90CE80CE70CFF3E031D5B
:103F8C00BD2F0130FF007F0883160313A107031D0B
:103F9C00D02FD12FBC2FED2F20302102031CD72F77
:103FAC00D82FE82F7F2F013083120313EB0003105F
:103FBC00E70DE80DE90DEA0DEB0BDD2F0130831653
:103FCC000313A1022108031DEC2FED2FD92F20087C
:103FDC000319F12FF22FFF2F83120313E709E809BE
:103FEC00E909EA09E70A0319E80A0319E90A0319B6
:0C3FFC00EA0A0800FF3FFF3FFF3FFF3FC5
:02400E00FA3F77
:00000001FF
