:060000000A128A1110280B
:10000800FE00030E83120313E0000A08E1007F08D4
:10001800E2000A128A11E72E0A128A1113288312A3
:100028000313E301E401E501E601E701E801E90161
:10003800EA01EB01EC0183010A128A113A2F8312BB
:1000480003133D088039C7003D08C2004207CD00B0
:10005800BC1F2F28302831284D144D080319352886
:10006800362845284D0A031D3A283B2843280030E6
:10007800BD000030BC000030BB000030BA00BC1727
:100088004D280030BD000030BC000030BB000030FF
:10009800BA0041088039FF007F08C7064108C2003E
:1000A8004207CC00C01F59285A285B284C144C081A
:1000B80003195F2860286F284C0A031D64286528E7
:1000C8006D280030C1000030C0000030BF00003093
:1000D800BE00C01777280030C1000030C0000030D3
:1000E800BF000030BE004C0803197B287C288128FB
:1000F8004D08031D802881288A280030BD00003063
:10010800BC000030BB000030BA00672B3A08F00092
:1001180040080A128A1113270A128A1171088312D9
:100128000313D3007008D2005208C200C301C401EF
:10013800C5014508CB004408CA004308C900420865
:10014800C8005308C200C301C401C5014508D10055
:100158004408D0004308CF004208CE003B08F00016
:100168003F080A128A1113270A128A11710883128A
:100178000313D3007008D2005208C200C301C4019F
:10018800C5014208C807430803110318013E0319B3
:10019800CE28C907440803110318013E0319D528BE
:1001A800CA07450803110318013E0319DC28CB07C9
:1001B8005308C200C301C401C5014208CE07430861
:1001C80003110318013E0319EA28CF074408031155
:1001D8000318013E0319F128D00745080311031835
:1001E800013E0319F828D1073C08F0003E080A121E
:1001F8008A1113270A128A11710883120313D30074
:100208007008D2005208C200C301C401C5014208E7
:10021800C807430803110318013E03191429C90725
:10022800440803110318013E03191B29CA0745088E
:1002380003110318013E03192229CB075308C200F2
:10024800C301C401C5014208CE07430803110318BE
:10025800013E03193029CF07440803110318013E52
:1002680003193729D007450803110318013E03195C
:100278003E29D1070830C2000310C80DC90DCA0DA8
:10028800CB0DC20B40293B08F0003E080A128A1128
:1002980013270A128A11710883120313D3007008F6
:1002A800D2005208C2005308C300C401C501420865
:1002B800C807430803110318013E03196429C90735
:1002C800440803110318013E03196B29CA0745089E
:1002D80003110318013E03197229CB073A08F000ED
:1002E8003F080A128A1113270A128A117108831209
:1002F8000313D3007008D2005208C2005308C30089
:10030800C401C5014208C807430803110318013E88
:1003180003198F29C907440803110318013E03195B
:100328009629CA07450803110318013E03199D2998
:10033800CB070830C2000310C80DC90DCA0DCB0D7C
:10034800C20B9F293A08F0003E080A128A111327A7
:100358000A128A11710883120313D3007008D2009D
:100368005208C2005308C300C401C5014208C807A7
:10037800430803110318013E0319C329C907440898
:1003880003110318013E0319CA29CA0745080311B6
:100398000318013E0319D129CB073B08F000400898
:1003A8000A128A1113270A128A1171088312031379
:1003B800D3007008D2005208C2005308C300C40119
:1003C800C5014208CE07430803110318013E03196B
:1003D800EE29CF07440803110318013E0319F52934
:1003E800D007450803110318013E0319FC29D1075A
:1003F8003C08F0003F080A128A1113270A128A11D2
:10040800710883120313D3007008D2005208C20087
:100418005308C300C401C5014208CE0743080311AD
:100428000318013E0319192ACF07440803110318BA
:10043800013E0319202AD007450803110318013E7D
:100448000319272AD1073C08F00040080A128A112C
:1004580013270A128A11710883120313D300700834
:10046800D2005208C2005308C300C401C5010830B5
:100478000310C20DC30DC40DC50DFF3E031D3C2A5C
:100488004208CE07430803110318013E03194D2AF9
:10049800CF07440803110318013E0319542AD00753
:1004A800450803110318013E03195B2AD1074808C0
:1004B800C2004908C3004A08C4004B08C5001830E8
:1004C8000310C50CC40CC30CC20CFF3E031D642AE8
:1004D8004208CE07430803110318013E0319752A81
:1004E800CF07440803110318013E03197C2AD007DB
:1004F800450803110318013E0319832AD107083060
:10050800C2000310C80DC90DCA0DCB0DC20B852A38
:100518004D084C07C200C301C30D4208823ED200F9
:1005280043080318013EFF3ED300B72A0130C2003A
:100538000310CE0DCF0DD00DD10DC20B9C2ACB1FB1
:10054800A62AA72AA82A4E140130C2000310C80DF3
:10055800C90DCA0DCB0DC20BAA2AFF30D20703184A
:10056800D30AFF30D307D01FBA2ABB2A9A2ACC0154
:10057800CB1FBF2AC02ADC2AFF304805C200FF3043
:100588004905C300FF304A05C4007F304B05C5004C
:1005980045084404430442040319D32AD42AD72A19
:1005A800CC01CC0ADC2A4E1CDA2ADB2ADC2AD42A23
:1005B8004C080319E02AE12A122B0130CE0700303B
:1005C80003180130CF07003003180130D00700307E
:1005D80003180130D107511CF22AF32A122B4E08B6
:1005E800C2004F08C3005008C4005108C5000130BC
:1005F800C600450DC50CC40CC30CC20CC60BFD2AA5
:100608004508D1004408D0004308CF004208CE0076
:100618000130D2070318D30A0030D3075308803AB1
:10062800FF0080307F02031D1B2BFF305202031C8A
:100638001E2B1F2B2A2B7F3083120313D1008030EF
:10064800D0000030CF000030CE005B2B83120313A4
:100658005308803AFF0080307F02031D352B01309C
:1006680052020318382B392B452B00308312031301
:10067800D1000030D0000030CF000030CE00C701DC
:100688005B2B831203135208CD00FF30CE05FF30D9
:10069800CF057F30D0050030D1054D1C542B552B8C
:1006A800562BD0174D08C2000310420CD100470842
:1006B800FF007F08D1045108BD005008BC004F0856
:1006C800BB004E08BA0008008312031327088039BC
:1006D800B1002708A8002807B800A61F742B752B9F
:1006E800762B3814380803197A2B7B2B8B2B380A76
:1006F800031D7F2B802B882B0030A7000030A6001D
:100708000030A5000030A400A617A701932B0030E5
:10071800A7000030A6000030A5000030A400230880
:100728008039FF007F08B1062308A8002807B90010
:10073800A21F9F2BA02BA12B391439080319A52B15
:10074800A62BB62B390A031DAA2BAB2BB32B0030D3
:10075800A3000030A2000030A1000030A000A217C2
:10076800A301BE2B0030A3000030A2000030A1007E
:100778000030A0002308220421042004031DC52BF7
:10078800C62BDF2B0030A7000030A6000030A500E4
:100798000030A4008030A6047F30A7043108FF0091
:1007A8007F08A7042708A3002608A2002508A1009F
:1007B8002408A000362D3808031DE32BE42BED2B6D
:1007C8000030A3000030A2000030A1000030A000DB
:1007D800362D3808A800A9012908AB0039082802D5
:1007E800AA00031CAB032A087F3EB2002B0803189B
:1007F800013E003EB3002708B0002608AF002508D8
:10080800AE002408AD000030A7000030A60000307C
:10081800A5000030A4000030B7000030B60000305A
:10082800B5000030B400B901632C390803191D2C38
:100838001E2C3E2C0130A8000310AD0DAE0DAF0DDF
:10084800B00DA80B202C0130A8000310A40DA50D95
:10085800A60DA70DA80B292CB71F332C342C352C2B
:1008680024140130A8000310B40DB50DB60DB70D52
:10087800A80B372C23083002031D4C2C22082F020A
:10088800031D4C2C21082E02031D4C2C20082D0280
:10089800031C4F2C502C5F2C37172008AD02210861
:1008A800031C210FAE022208031C220FAF022308EB
:1008B800031C230FB0020130FF007F08B9071A306C
:1008C8003902031C682C692C192C30082F042E04BB
:1008D8002D040319702C712C902C3414902C013099
:1008E800A8000310A40DA50DA60DA70DA80B752C27
:1008F800B71F7F2C802C812C24140130A8000310F2
:10090800B40DB50DB60DB70DA80B832CFF30B2078B
:100918000318B30AFF30B307A61F932C942C732C2B
:10092800B901B71F982C992CB52CFF303405A800B5
:10093800FF303505A900FF303605AA007F3037059E
:10094800AB002B082A04290428040319AC2CAD2C6D
:10095800B02CB901B90AB52C241CB32CB42CB52C75
:10096800AD2C39080319B92CBA2CEB2C0130A4078B
:10097800003003180130A507003003180130A6071E
:10098800003003180130A707271CCB2CCC2CEB2CEC
:100998002408A8002508A9002608AA002708AB00F3
:1009A8000130AC002B0DAB0CAA0CA90CA80CAC0B9D
:1009B800D62C2B08A7002A08A6002908A500280875
:1009C800A4000130B2070318B30A0030B307330894
:1009D800803AFF0080307F02031DF42CFF30320282
:1009E800031CF72CF82C062DFF3083120313B200DA
:1009F8000030B3000030A7000030A6000030A5008A
:100A08000030A400831203133308803AFF008030BB
:100A18007F02031D112D013032020318142D152DEC
:100A2800222D83120313B201B3010030A700003056
:100A3800A6000030A5000030A400B1018312031302
:100A48003208B800381C292D2A2D2C2DA617302D38
:100A58007F30FF007F08A6053808A8000310280C7F
:100A6800A700D22B0800F800780803193C2D3D2D6B
:100A7800512DF31F402D412D512D7009FA00710998
:100A8800FB007209FC007309FD00FA0A0319FB0A4E
:100A98000319FC0A0319FD0A592D7308FD00720891
:100AA800FC007108FB007008FA00730872047104F6
:100AB8007004031D602D612D6A2D0030F300003095
:100AC800F2000030F1000030F000EE2D9630F90011
:100AD8007A2D0130FF007F08F90701300310FD0C63
:100AE800FC0CFB0CFA0CFF3E031D722DFE307D053D
:100AF800031D7F2D802D6D2D9C2D0130FF007F085B
:100B0800F9070130FA07003003180130FB070030FD
:100B180003180130FC07003003180130FD070130CD
:100B28000310FD0CFC0CFB0CFA0CFF3E031D942D6E
:100B3800FF307D05031DA12DA22D812DAE2D013085
:100B4800F9020130F4000310FA0DFB0DFC0DFD0D48
:100B5800F40BA72DFC1BB12DB22DB82D0230790254
:100B68000318B72DB82DA32D7918BB2DBC2DC42D76
:100B7800FF30FA05FF30FB057F30FC05FF30FD052F
:100B88000310F90C7908F400F501F601F7011830A3
:100B98000310F40DF50DF60DF70DFF3E031DCC2DDA
:100BA8007408FA047508FB047608FC047708FD0449
:100BB80078080319E02DE12DE62DF31FE42DE52D2E
:100BC800E62DFD177D08F3007C08F2007B08F10094
:100BD8007A08F0000800003083120313BD000030CB
:100BE800BC000030BB000030BA004030A300003029
:100BF800A2000030A1000030A00069086702F000E0
:100C08006A08031C6A0A6802F100F201F301003065
:100C18000A128A1137250A128A11730883120313DC
:100C2800A7007208A6007108A5007008A4000A129F
:100C38008A1168230A128A11831203132308C10038
:100C48002208C0002108BF002008BE000A128A112D
:100C580023200A128A11831203133D08DB003C0883
:100C6800DA003B08D9003A08D8004730BD00043004
:100C7800BC00D030BB000030BA005B08C1005A0885
:100C8800C0005908BF005808BE000A128A11232064
:100C98000A128A11831203133D08DF003C08DE00A4
:100CA8003B08DD003A08DC005F08D7005E08D60084
:100CB8005D08D5005C08D4000800872E8115011155
:100CC80081100110B02E011181100110B02E0111F8
:100CD80081100114B02E011181140110B02E0111E0
:100CE80081140114B02E011581100110B02E0115C8
:100CF80081100114B02E011581140110B02E0115B8
:100D080081140114B02E831603132108003A031925
:100D1800912E013A0319AB2EB02E2008013A03197F
:100D2800622E033A0319672E063A03196B2E0C3A02
:100D380003196F2E183A0319732E303A0319772EB8
:100D4800603A03197B2EC03A03197F2EB02E200873
:100D5800003A0319832EB02E0800831203136C087F
:100D6800031DB72EB82EC62E1608EA001508E9008E
:100D78000A128A118C270A128A1183120313EC01B2
:100D8800EC0AE62E6C03031DCA2ECB2EE62E16089F
:100D9800E8001508E7000A128A11EF250A128A11DD
:100DA800831203135708E6005608E5005508E400C7
:100DB8005408E3000A128A117A270A128A11831248
:100DC8000313EC0108000B1DEA2EEB2EFC2E01305C
:100DD800FF007F08EB0765306B06031DF42EF52E28
:100DE800FB2EEB010A128A119B270A128A110B119A
:100DF800831203130C1D012F022F0A2F0A128A11C6
:100E0800B1260A128A11831203130C116208FF001B
:100E180061088A00600E8300FE0E7E0E0900F8004D
:100E2800F401F5017008F200F3017208F600730886
:100E3800F700781C202F212F272F7608F407031896
:100E4800F50A7708F50701300310F60DF70DFF3E98
:100E5800031D282F0310F80C7808031D342F352F95
:100E68001D2F7508F1007408F00008000630831281
:100E780003138100103083160313A2000030A3006F
:100E88000A128A1152270A128A110A128A11A827ED
:100E98000A128A114E2F0A128A111028831203137C
:100EA800810183160313811281112308A1002208EE
:100EB800A0000A128A1161260A128A110B118B16D8
:100EC8008B1708000A128A11B3270A128A1183168F
:100ED8000313071583120313971117159710171487
:100EE8000A128A11BC270A128A11080083160313F2
:100EF8000C110A128A11CC270A128A110530FF0038
:100F08007F08831203139704831603130C15080034
:100F1800831603130C110A128A11CC270A128A119C
:100F2800831203131715831603130C150800831275
:100F3800031308149F2FA02FA12FA22F831203138E
:100F480008108E018F0108000A128A11C5270A129B
:100F58008A110A128A1166270A128A110800831256
:100F680003138E018F0190109012101210140800B4
:100F7800831203130C11831603130C150B178B170D
:100F880008008316031308108312031308100800BF
:0E0F9800F030FF007F08831203139705080056
:08400000FF3FFF3FFF3FFF3FC0
:02400E00FA3F77
:00000001FF
