:060000000A128A11122809
:10000800FE00030E83160313DB000408DC000A0855
:10001800DD007F08DE000A168A11BA280A128A1142
:10002800152883120313EF018313DF308400EE30A9
:100038000A168A15C8220A128A118317903084007A
:10004800B3300A168A15C8220A128A1183010A16C1
:100058008A15892B83160313CF00B930C600282EC2
:1000680025305A06031939283A2844284F088400AD
:100078005A08831780000130FF007F08CF07282E19
:10008800C701C801380884000A168A1100200A121C
:100098008A112E3A031D51285228972848170130F3
:1000A800FF007F08B807D401D50186280A30F00080
:1000B8000030F100831603135508F3005408F200CA
:1000C8000A168A15EB230A128A117108831603137C
:1000D800D5007008D400380884000A168A11002058
:1000E8000A128A11D03EBD00FF3003180030BE004E
:1000F8003D08D4070318D50A3E08D5070130FF008C
:100108007F08B807380884000A168A1100200A12E6
:100118008A110A168A154D230A128A11031895287E
:1001280096285A289D28D401D50148169D28481597
:10013800B928013083160313B807FF303807840045
:100148000A168A1100200A128A11DA00BD00BE01BF
:100158003E08003A0319B128282E3D08003A031931
:10016800382E663A03199B28282E00304705BD0013
:1001780007304805BE003D083E040319C428C528B9
:10018800E52D481EC828C928CD280630D4000030DF
:10019800D5004608840083130008D600840A0008A6
:1001A800D700840A0008D800840A0008D90004305F
:1001B800FF007F08C6075908F3005808F2005708DF
:1001C800F1005608F0000030F7000030F60000306B
:1001D800F5000030F4000A128A1503200A128A1169
:1001E8000318F728F8281529831603135908F3006C
:1001F8005808F2005708F1005608F0000A168A1548
:10020800ED220A128A11730883160313D9007208A3
:10021800D8007108D7007008D6000330C704003032
:10022800C80483160313CD01CE015908F3005808FA
:10023800F2005708F1005608F0000030F7000030CF
:10024800F6000030F5000030F4000A168A15B524CF
:100258000A128A11031831293229222A0310831617
:100268000313580D590D823ECD00FF30031800309E
:10027800CE00FF30CD070318CE0AFF30CE0703307B
:10028800F0000030F1004E08F3004D08F2000A16A5
:100298008A15EB230A128A11710883160313CE00FC
:1002A8007008CD000A30F6000030F7004E08F9005B
:1002B8004D08F8000A168A1578260A128A11770856
:1002C80083160313CE007608CD00CE1F6C296D2946
:1002D8007329FF30CD070318CE0AFF30CE074D0330
:1002E800FF3A0A128A15A1240A128A1183120313EB
:1002F800570883160313D300831203135608831673
:100308000313D20083120313550883160313D10075
:1003180083120313540883160313D0005908831259
:100328000313BD0083160313580883120313BC007C
:1003380083160313570883120313BB008316031392
:10034800560883120313BA00831603135308831243
:100358000313C10083160313520883120313C0004A
:1003680083160313510883120313BF008316031364
:10037800500883120313BE000A128A155C210A1260
:100388008A11831203133D0883160313D3008312C3
:1003980003133C0883160313D200831203133B088C
:1003A80083160313D100831203133A088316031329
:1003B800D0005308F3005208F2005108F100500829
:1003C800F0003F30F7008030F6000030F5000030D4
:1003D800F4000A128A1503200A128A110318F52953
:1003E800F629FF29FF3083160313CD070318CE0A19
:1003F800FF30CE07222A831603135308F30052084E
:10040800F2005108F1005008F0004130F7002030A8
:10041800F6000030F5000030F4000A128A150320B7
:100428000A128A11031C192A1A2A222A0130831651
:100438000313CD070318CE0A0030CE078316031323
:100448005508803AFF0080307F02031D2D2A0D30A9
:1004580054020318302A312A682A831603135408D1
:100468000A168A11FF220A128A11831203135708E7
:1004780083160313A300831203135608831603136A
:10048800A20083120313550883160313A1008312D5
:100498000313540883160313A0005908A70058082B
:1004A800A6005708A5005608A4000A168A110A25AE
:1004B8000A128A11831603132308D9002208D800C8
:1004C8002108D7002008D600831603134E08803A67
:1004D800FF0080307F02031D732A0A304D02031883
:1004E800762A772AC82A831603135908F30058086E
:1004F800F2005708F1005608F0000030F70000300D
:10050800F6000030F5000030F4000A168A15B5240C
:100518000A128A110318912A922A3A2B8316031376
:10052800590883120313EA00831603135808831229
:100538000313E90083160313570883120313E80013
:1005480083160313560883120313E7000A168A1545
:10055800DF260A128A11831203136A0869046804E1
:100568006704031DB82AB92A3A2B831603134E08C9
:10057800803AFF0080307F02031DC42A02304D02FA
:10058800031CC72AC82A3A2B831603135308F300FF
:100598005208F2005108F1005008F0004030F7000E
:1005A8008930F6007030F5005F30F4000A128A15C1
:1005B80003200A128A110318E22AE32AEC2AF730E8
:1005C80083160313CD070318CE0AFF30CE07F42A8B
:1005D800F83083160313CD070318CE0AFF30CE0771
:1005E8004D080A128A15A1240A128A1183120313CC
:1005F800570883160313D300831203135608831670
:100608000313D20083120313550883160313D10072
:1006180083120313540883160313D0005908F300F8
:100628005808F2005708F1005608F0005308F70080
:100638005208F6005108F5005008F4000A128A1111
:100648003D260A128A11730883160313CC00720818
:10065800CB007108CA007008C9000030D90000300A
:10066800D8000030D7000030D600A02B8316031323
:10067800590883120313EA008316031358088312D8
:100688000313E90083160313570883120313E800C2
:1006980083160313560883120313E7000A168A15F4
:1006A800DF260A128A11831203136A0883160313BA
:1006B800CC0083120313690883160313CB0083123B
:1006C8000313680883160313CA0083120313670809
:1006D80083160313C9004C08F3004B08F2004A08BC
:1006E800F1004908F00000300A128A11F5260A12B2
:1006F8008A11730883160313B3007208B2007108D5
:10070800B1007008B0005908B7005808B60057087B
:10071800B5005608B4000A168A15C7230A128A11AA
:10072800831603133308D9003208D8003108D700DC
:100738003008D600CD01CE01DA01DA0A5A08BD0028
:1007480001300310BD0DFF3E031DA52B03103D0D09
:10075800693E84000A168A1100200A128A11BE0016
:100768000A168A1100200A128A11BF000A168A1175
:1007780000200A128A11C0000A168A1100200A12E3
:100788008A11C10041084C02031DD42B40084B02BA
:10079800031DD42B3F084A02031DD42B3E084902EF
:1007A8000318D72BD82BD92BE32B0130FF007F0858
:1007B800DA070A305A06031DE22BE32BA22B03307B
:1007C8004705BD0000304805BE003D083E0403193A
:1007D800EE2BEF2B5A2C4F0884002D308317800006
:1007E8000130FF007F08CF075A2C5A08BD0001309E
:1007F8000310BD0DFF3E031DFC2B03103D0D693E8C
:1008080084000A168A1100200A128A11F0000A16BA
:100818008A1100200A128A11F1000A168A11002092
:100828000A128A11F2000A168A1100200A128A1185
:10083800F3004C08F7004B08F6004A08F500490891
:10084800F4000A168A1512260A128A1173088316EA
:100858000313D3007208D2007108D1007008D000C9
:100868000030F3000030F2000030F1000A30F000F0
:100878005308F7005208F6005108F5005008F40034
:100888000A168A1503250A128A1173088316031398
:10089800D3007208D2007108D1007008D0004F0848
:1008A80084005008303E83178000F42B0130DA02B0
:1008B8005A0A031D602C612CF92B732C8316031321
:1008C8004F0884003030831780000130FF007F0814
:1008D800CF07FF30CD070318CE0AFF30CE074E08EA
:1008E800803AFF0080307F02031D7C2C01304D02CE
:1008F80003187F2C802C622C831603135508803A2A
:10090800FF0080307F02031D8B2C09305402031C2A
:100918008E2C8F2C942C083083160313DA00982C15
:10092800831603135408DA005A08BD00BE013D08B7
:10093800D4023E08031CD503D5025A080319A52C76
:10094800A62CAF2C4F0884002E308317800001306E
:10095800FF007F08CF075A080A128A15A1240A1235
:100968008A1183120313570883160313C5008312D1
:100978000313560883160313C40083120313550880
:1009880083160313C3008312031354088316031337
:10099800C200450883120313C100831603134408D9
:1009A80083120313C000831603134308831203132F
:1009B800BF0083160313420883120313BE00831675
:1009C8000313590883120313BD0083160313580831
:1009D80083120313BC0083160313570883120313EF
:1009E800BB0083160313560883120313BA000A12B6
:1009F8008A155C210A128A11831203133D08EA0042
:100A08003C08E9003B08E8003A08E7000A168A159E
:100A1800DF260A128A11831203136A088316031346
:100A2800CC0083120313690883160313CB008312C7
:100A38000313680883160313CA0083120313670895
:100A480083160313C900C72D5A08BD0001300310CF
:100A5800BD0DFF3E031D2B2D03103D0D693E840087
:100A68000A168A1100200A128A11F0000A168A1141
:100A780000200A128A11F1000A168A1100200A12AF
:100A88008A11F2000A168A1100200A128A11F3004C
:100A98004C08F7004B08F6004A08F5004908F4002E
:100AA8000A168A1512260A128A1173088316031366
:100AB800D3007208D2007108D1007008D00000304D
:100AC800F3000030F2000030F1000A30F000530863
:100AD800F7005208F6005108F5005008F4000A160D
:100AE8008A1503250A128A11730883160313D30083
:100AF8007208D2007108D1007008D0004F08840035
:100B08005008303E831780000130FF007F08CF0770
:100B18005A08BD0001300310BD0DFF3E031D8F2D87
:100B280003103D0D693E84000A168A1100200A123E
:100B38008A11F0000A168A1100200A128A11F1009F
:100B48000A168A1100200A128A11F2000A168A115E
:100B580000200A128A11F3004C08F7004B08F6002F
:100B68004A08F5004908F4000A168A1503250A12EE
:100B78008A11730883160313CC007208CB0071081E
:100B8800CA007008C9000130DA025A0A031DCD2DC7
:100B9800CE2D282DDE2D4F0884003030831780009D
:100BA8000130FF007F08CF07FF30D4070318D50AAC
:100BB800FF30D50754085504031DE32DE42DCF2D30
:100BC800282E54085504031DEA2DEB2DF92D4C0849
:100BD8004B044A044904031DF22DF32DF92D01306D
:100BE800D4070318D50A0030D5075508803A803C49
:100BF800031D002E54085A020318032E042E052E36
:100C0800142E831603135508803ABD0080303D0228
:100C1800031D102E5A0854020318132E142E142ED6
:100C28000330831603134705BD0000304805BE0096
:100C38003D083E040319212E222E282E4F08840039
:100C48002D30831780003F280130B807FF30380760
:100C580084000A168A1100200A128A11DA005A083A
:100C6800031D372E382E34284F088400831780013F
:100C780008000310720D730D83120313A5002508D5
:100C8800031D472E482E512E0030F3000030F2008D
:100C98000030F1000030F000F42E0310760D770DCF
:100CA800A4002408031D592E5A2E5B2E482EF21735
:100CB800FF30F005FF30F105FF30F2050030F30595
:100CC800F617FF30F405FF30F505FF30F605003064
:100CD800F7050030A3000030A2000030A10000306A
:100CE800A0007F30A502A0302407F8007808A502EC
:100CF8002030A4000130F8000310A00DA10DA20DB2
:100D0800A30DF80B802E77087302031D952E760825
:100D18007202031D952E75087102031D952E740825
:100D28007002031C982E992EA82E7408F0027508DC
:100D3800031C750FF1027608031C760FF202770880
:100D4800031C770FF30220140130F8000310F00D94
:100D5800F10DF20DF30DF80BAA2E0130A402031DBC
:100D6800B62EB72E7E2EA51FBA2EBB2ED52E250841
:100D7800803A9F3E0318C12EC22EC32E482E013042
:100D88000310A30CA20CA10CA00CFF3E031DC42E43
:100D98000130FF007F08A507031DD32ED42EC32ED4
:100DA800EC2E20302502031CDA2EDB2EE72E482EEF
:100DB8000130F8000310A00DA10DA20DA30DF80B32
:100DC800DE2E0130A5022508031DEB2EEC2EDC2EAD
:100DD8002308F3002208F2002108F1002008F0009F
:100DE8000800F80078080319FA2EFB2E0F2FF31FBE
:100DF800FE2EFF2E0F2F7009FA007109FB007209F1
:100E0800FC007309FD00FA0A0319FB0A0319FC0A1E
:100E18000319FD0A172F7308FD007208FC007108FA
:100E2800FB007008FA007308720471047004031D53
:100E38001E2F1F2F282F0030F3000030F200003043
:100E4800F1000030F000AC2F9630F900382F013057
:100E5800FF007F08F90701300310FD0CFC0CFB0CA8
:100E6800FA0CFF3E031D302FFE307D05031D3D2F7C
:100E78003E2F2B2F5A2F0130FF007F08F907013032
:100E8800FA07003003180130FB070030031801305F
:100E9800FC07003003180130FD0701300310FD0C7A
:100EA800FC0CFB0CFA0CFF3E031D522FFF307D0596
:100EB800031D5F2F602F3F2F6C2F0130F902013087
:100EC800F4000310FA0DFB0DFC0DFD0DF40B652F5E
:100ED800FC1B6F2F702F762F023079020318752FA5
:100EE800762F612F7918792F7A2F822FFF30FA0504
:100EF800FF30FB057F30FC05FF30FD050310F90CC2
:100F08007908F400F501F601F70118300310F40D23
:100F1800F50DF60DF70DFF3E031D8A2F7408FA0430
:100F28007508FB047608FC047708FD0478080319A3
:100F38009E2F9F2FA42FF31FA22FA32FA42FFD179F
:100F48007D08F3007C08F2007B08F1007A08F000C5
:100F58000800831203136F08031DB32FB42FC82F83
:100F6800160883160313EA00831203131508831661
:100F78000313E9000A168A151C230A128A11831220
:100F88000313EF01EF0AFC2F6F03031DCC2FCD2FA6
:100F9800FC2F160883160313EC008312031315089D
:100FA80083160313EB000A168A156D270A128A1195
:100FB80083120313570883160313E60083120313DF
:100FC800560883160313E500831203135508831686
:100FD8000313E40083120313540883160313E30076
:100FE8000A168A153B230A128A1183120313EF018A
:020FF8000800EF
:1010060000307005F80000307105F9008030720577
:10101600FA007F307305FB007B087A0479047804B4
:10102600031D162817281F280030F3000030F20091
:101036000030F1000030F00000307405F800003098
:101046007505F90080307605FA007F307705FB00DC
:101056007B087A0479047804031D322833283B2858
:101066000030F7000030F6000030F5000030F400E4
:10107600F31F3E283F2863280030F8000030F900AF
:101086000030FA008030FB007008F8027108031C7B
:10109600710F4E284F28F9027208031C720F54284C
:1010A6005528FA027308031C730F5A285B28FB02A3
:1010B6007B08F3007A08F2007908F1007808F0005E
:1010C600F71F662867288B280030F8000030F900E3
:1010D6000030FA008030FB007408F8027508031C23
:1010E600750F76287728F9027608031C760F7C2878
:1010F6007D28FA027708031C770F82288328FB02D3
:101106007B08F7007A08F6007908F5007808F400FD
:101116008030F3068030F70677087302031D9D289A
:1011260076087202031D9D2875087102031D9D280D
:10113600740870020318A028A128A3280310A42865
:10114600031408007008F8007108F9007208FA0024
:101156000310790D7A0D83120313A5002508031DCC
:10116600B528B628BF280030F3000030F200003062
:10117600F1000030F0005B297408F8007508F900EA
:101186007608FA000310790D7A0DA4002408031DD1
:10119600CD28CE28CF28B628F117FF30F005FF302E
:1011A600F1050030F205F517FF30F405FF30F505BF
:1011B6000030F6050030A3000030A2000030A10088
:1011C6000030A0007F30A50298302407F800780888
:1011D600A5021830A4000130F8000310A00DA10DDF
:1011E600A20DA30DF80BF02876087202031D012943
:1011F60075087102031D012974087002031C042975
:10120600052910297408F0027508031C750FF102F0
:101216007608031C760AF202201401300310F00D42
:10122600F10DF20DFF3E031D11290130A402031D2D
:101236001D291E29EE28A51F212922293C2925081A
:10124600803A973E0318282929292A29B6280130E9
:101256000310A30CA20CA10CA00CFF3E031D2B290E
:101266000130FF007F08A507031D3A293B292A29DB
:10127600532918302502031C412942294E29B62834
:101286000130F8000310A00DA10DA20DA30DF80B5F
:1012960045290130A5022508031D52295329432952
:1012A6002308F3002208F2002108F1002008F000CC
:1012B6000800831203133D088039C7003D08C200A9
:1012C6004207CD00BC1F682969296A294D144D08BB
:1012D60003196E296F297E294D0A031D7329742966
:1012E6007C290030BD000030BC000030BB0000305F
:1012F600BA00BC1786290030BD000030BC000030A3
:10130600BB000030BA0041088039FF007F08C706DD
:101316004108C2004207C800C01F92299329942998
:1013260048144808031998299929A829480A031D29
:101336009D299E29A6290030C1000030C00000303A
:10134600BF000030BE00C017B0290030C100003019
:10135600C0000030BF000030BE0048080319B429A1
:10136600B529BA294D08031DB929BA29C329003060
:10137600BD000030BC000030BB000030BA00A02C1D
:101386003A08F00040080A168A1510240A128A152F
:10139600710883120313D3007008D2005208C200EA
:1013A600C301C401C5014508CC004408CB0043086D
:1013B600CA004208C9005308C200C301C401C501DE
:1013C6004508D1004408D0004308CF004208CE00AB
:1013D6003B08F0003F080A168A1510240A128A15DF
:1013E600710883120313D3007008D2005208C2009A
:1013F600C301C401C5014208C90743080311031804
:10140600013E0319072ACA07440803110318013EBF
:1014160003190E2ACB07450803110318013E0319C9
:10142600152ACC075308C200C301C401C5014208EE
:10143600CE07430803110318013E0319232ACF07D9
:10144600440803110318013E03192A2AD007450848
:1014560003110318013E0319312AD1073C08F00095
:101466003E080A168A1510240A128A157108831274
:101476000313D3007008D2005208C200C301C4018E
:10148600C5014208C907430803110318013E0319A1
:101496004D2ACA07440803110318013E0319542AAA
:1014A600CB07450803110318013E03195B2ACC0735
:1014B6005308C200C301C401C5014208CE07430850
:1014C60003110318013E0319692ACF0744080311C3
:1014D6000318013E0319702AD007450803110318A3
:1014E600013E0319772AD1070830C2000310C90D3F
:1014F600CA0DCB0DCC0DC20B792A3B08F0003E0875
:101506000A168A1510240A128A1571088312031303
:10151600D3007008D2005208C2005308C300C401A9
:10152600C5014208C907430803110318013E031900
:101536009D2ACA07440803110318013E0319A42A69
:10154600CB07450803110318013E0319AB2ACC0744
:101556003A08F0003F080A168A1510240A128A155E
:10156600710883120313D3007008D2005208C20018
:101576005308C300C401C5014208C9074308031143
:101586000318013E0319C82ACA07440803110318A1
:10159600013E0319CF2ACB07450803110318013E64
:1015A6000319D62ACC070830C2000310C90DCA0D8C
:1015B600CB0DCC0DC20BD82A3A08F0003E080A160D
:1015C6008A1510240A128A15710883120313D30090
:1015D6007008D2005208C2005308C300C401C501F6
:1015E6004208C907430803110318013E0319FC2AE0
:1015F600CA07440803110318013E0319032BCB073E
:10160600450803110318013E03190A2BCC073B08B2
:10161600F00040080A168A1510240A128A15710865
:1016260083120313D3007008D2005208C200530875
:10163600C300C401C5014208CE07430803110318BD
:10164600013E0319272BCF07440803110318013E57
:1016560003192E2BD007450803110318013E031961
:10166600352BD1073C08F0003F080A168A151024CE
:101676000A128A15710883120313D3007008D20068
:101686005208C2005308C300C401C5014208CE0770
:10169600430803110318013E0319522BCF074408D0
:1016A60003110318013E0319592BD00745080311EE
:1016B6000318013E0319602BD1073C08F0004008CF
:1016C6000A168A1510240A128A1571088312031342
:1016D600D3007008D2005208C2005308C300C401E8
:1016E600C50108300310C20DC30DC40DC50DFF3E64
:1016F600031D752B4208CE07430803110318013E4C
:101706000319862BCF07440803110318013E03195A
:101716008D2BD007450803110318013E0319942B9E
:10172600D1074908C2004A08C3004B08C4004C0848
:10173600C50018300310C50CC40CC30CC20CFF3E08
:10174600031D9D2B4208CE07430803110318013ED3
:101756000319AE2BCF07440803110318013E0319E2
:10176600B52BD007450803110318013E0319BC2BFE
:10177600D1070830C2000310C90DCA0DCB0DCC0D20
:10178600C20BBE2B4D084807C200C301C30D420859
:10179600823ED20043080318013EFF3ED300F02BE1
:1017A6000130C2000310CE0DCF0DD00DD10DC20BEE
:1017B600D52BCC1FDF2BE02BE12B4E140130C200C2
:1017C6000310C90DCA0DCB0DCC0DC20BE32BFF3098
:1017D600D2070318D30AFF30D307D01FF32BF42BFD
:1017E600D32BC801CC1FF82BF92B152CFF3049053C
:1017F600C200FF304A05C300FF304B05C4007F30EE
:101806004C05C500450844044304420403190C2C46
:101816000D2C102CC801C80A152C4E1C132C142C88
:10182600152C0D2C48080319192C1A2C4B2C013099
:10183600CE07003003180130CF07003003180130FF
:10184600D007003003180130D107511C2B2C2C2C4B
:101856004B2C4E08C2004F08C3005008C400510864
:10186600C5000130C600450DC50CC40CC30CC20C26
:10187600C60B362C4508D1004408D0004308CF00DB
:101886004208CE000130D2070318D30A0030D3072E
:101896005308803AFF0080307F02031D542CFF302E
:1018A6005202031C572C582C632C7F3083120313CF
:1018B600D1008030D0000030CF000030CE00942C14
:1018C600831203135308803AFF0080307F02031D02
:1018D6006E2C013052020318712C722C7E2C0030B3
:1018E60083120313D1000030D0000030CF00003047
:1018F600CE00C701942C831203135208CD00FF308B
:10190600CE05FF30CF057F30D0050030D1054D1C08
:101916008D2C8E2C8F2CD0174D08C2000310420C34
:10192600D1004708FF007F08D1045108BD005008C8
:10193600BC004F08BB004E08BA0008008312031310
:10194600E600E61FA72CA82C552EE609E60A66082F
:10195600803A123E031CB02CB12C992D0A30F600A9
:101966000030F7006608F200F301F21BF30364305F
:10197600F0000030F1000A168A1557250A128A155A
:101986007108F9007008F8000A168A1578260A12F6
:101996008A15760883120313D80001300310D80D78
:1019A600FF3E031DD12C0310580D593E84000A1624
:1019B6008A1100200A128A15D9000A168A110020F7
:1019C6000A128A15DA000A168A1100200A128A15E6
:1019D600DB000A168A1100200A128A15DC005C0850
:1019E600BD005B08BC005A08BB005908BA00643049
:1019F600F6000030F7006608F800F901F81BF90355
:101A06000A168A1578260A128A157608831203138F
:101A1600DD0001300310DD0DFF3E031D0D2D03100B
:101A26005D0D7D3E84000A168A1100200A128A1571
:101A3600DE000A168A1100200A128A15DF000A162D
:101A46008A1100200A128A15E0000A168A1100205F
:101A56000A128A15E1006108C1006008C0005F082B
:101A6600BF005E08BE000A128A155C210A128A159A
:101A7600831203133D08E5003C08E4003B08E3003D
:101A86003A08E2000A30F0000030F1006608F20081
:101A9600F301F21BF3030A168A1557250A128A1553
:101AA600700883120313D80001300310D80DFF3ECF
:101AB600031D582D0310580D353E84000A168A1151
:101AC60000200A128A15D9000A168A1100200A1265
:101AD6008A15DA000A168A1100200A128A15DB0016
:101AE6000A168A1100200A128A15DC005C08BD005D
:101AF6005B08BC005A08BB005908BA006508C1005B
:101B06006408C0006308BF006208BE000A128A1596
:101B16005C210A128A15831203133D08D7003C087C
:101B2600D6003B08D5003A08D400FF2F6608803A55
:101B3600753E031C9F2DA02D282E0A30F000003084
:101B4600F1006608F200F301F21BF3030A168A1588
:101B560057250A128A15700883120313D80001301C
:101B66000310D80DFF3E031DB32D0310580D353E4F
:101B760084000A168A1100200A128A15D9000A164C
:101B86008A1100200A128A15DA000A168A11002024
:101B96000A128A15DB000A168A1100200A128A1513
:101BA600DC005C08BD005B08BC005A08BB00590895
:101BB600BA000A30F6000030F7006608F800F901AE
:101BC600F81BF9030A168A1578260A128A1576086A
:101BD60083120313DD0001300310DD0DFF3E031DEC
:101BE600EF2D03105D0D593E84000A168A11002060
:101BF6000A128A15DE000A168A1100200A128A15B0
:101C0600DF000A168A1100200A128A15E0000A1659
:101C16008A1100200A128A15E1006108C1006008D5
:101C2600C0005F08BF005E08BE000A128A155C216C
:101C36000A128A15831203133D08D7003C08D60002
:101C46003B08D5003A08D400FF2F6608D8000130BB
:101C56000310D80DFF3E031D2B2E0310580D353EE5
:101C660084000A168A1100200A128A15D9000A165B
:101C76008A1100200A128A15DA000A168A11002033
:101C86000A128A15DB000A168A1100200A128A1522
:101C9600DC005C08D7005B08D6005A08D500590856
:101CA600D400FF2F6608803A123E031C5B2E5C2E82
:101CB600442F0A30F6000030F7006608F200F30100
:101CC600F21BF3036430F0000030F1000A168A15A7
:101CD60057250A128A157108F9007008F8000A16C5
:101CE6008A1578260A128A15760883120313D800F5
:101CF60001300310D80DFF3E031D7C2E0310580D36
:101D0600253E84000A168A1100200A128A15D90077
:101D16000A168A1100200A128A15DA000A168A1192
:101D260000200A128A15DB000A168A1100200A1200
:101D36008A15DC005C08BD005B08BC005A08BB00C5
:101D46005908BA006430F6000030F7006608F8005B
:101D5600F901F81BF9030A168A1578260A128A155C
:101D6600760883120313DD0001300310DD0DFF3EFC
:101D7600031DB82E03105D0D493E84000A168A1114
:101D860000200A128A15DE000A168A1100200A129D
:101D96008A15DF000A168A1100200A128A15E00049
:101DA6000A168A1100200A128A15E1006108C1008C
:101DB6006008C0005F08BF005E08BE000A128A15F0
:101DC6005C210A128A15831203133D08E5003C08BC
:101DD600E4003B08E3003A08E2000A30F000003075
:101DE600F1006608F200F301F21BF3030A168A15E6
:101DF60057250A128A15700883120313D80001307A
:101E06000310D80DFF3E031D032F0310580D013E8E
:101E160084000A168A1100200A128A15D9000A16A9
:101E26008A1100200A128A15DA000A168A11002081
:101E36000A128A15DB000A168A1100200A128A1570
:101E4600DC005C08BD005B08BC005A08BB005908F2
:101E5600BA006508C1006408C0006308BF006208D4
:101E6600BE000A128A155C210A128A158312031310
:101E76003D08D7003C08D6003B08D5003A08D400F8
:101E8600FF2F6608803A753E031C4A2F4B2FD32F2F
:101E96000A30F0000030F1006608F200F301F21B90
:101EA600F3030A168A1557250A128A157008831233
:101EB6000313D80001300310D80DFF3E031D5E2F1B
:101EC6000310580D013E84000A168A1100200A12DA
:101ED6008A15D9000A168A1100200A128A15DA0014
:101EE6000A168A1100200A128A15DB000A168A11C0
:101EF60000200A128A15DC005C08BD005B08BC00E5
:101F06005A08BB005908BA000A30F6000030F7003C
:101F16006608F800F901F81BF9030A168A157826EF
:101F26000A128A15760883120313DD0001300310A6
:101F3600DD0DFF3E031D9A2F03105D0D253E840027
:101F46000A168A1100200A128A15DE000A168A115C
:101F560000200A128A15DF000A168A1100200A12CA
:101F66008A15E0000A168A1100200A128A15E10075
:101F76006108C1006008C0005F08BF005E08BE00BF
:101F86000A128A155C210A128A15831203133D0868
:101F9600D7003C08D6003B08D5003A08D400FF2FEE
:101FA6006608D80001300310D80DFF3E031DD62F5A
:101FB6000310580D013E84000A168A1100200A12E9
:101FC6008A15D9000A168A1100200A128A15DA0023
:101FD6000A168A1100200A128A15DB000A168A11CF
:101FE60000200A128A15DC005C08D7005B08D600C0
:101FF6005A08D5005908D400080010308A00040891
:10200600840A820700340034003480343F340034BC
:1020160000342034413400340034C83442340034AF
:1020260000347A344434003440341C3446340034AA
:102036005034C3344734003424347434493480343F
:10204600963418344B342034BC34BE344C342834E3
:102056006B346E344E34F934023415345034EC3467
:102066007834AD346034CA34F234493471340034CF
:10207600003480343F34CD34CC34CC343D340A344F
:10208600D73423343C346F34123483343A3417341F
:10209600B734D1343834AC34C53427343734BD344E
:1020A6003734863435349534BF34D63433347734C4
:1020B600CC342B3432345F34703489343034FF34CA
:1020C600E634DB342E340834E5343C341E346034D4
:1020D6004234A2340D3401340034003400340A345E
:1020E6000034003400346434003400340034E834FE
:1020F6000334003400341034273400340034A03460
:10210600863401340034403442340F340034803491
:102116009634983400340034E134F5340534003410
:10212600CA349A343B344434693473347434613475
:102136006E3463346534203474346F3420346F3431
:10214600623473347434613463346C3465343A34D1
:10215600203425342E3433346634203463346D34DD
:062166000D340A340034C0
:102174000B1DBD28BE28D528063083120313810009
:102184000130FF007F0883160313ED0765306D06E9
:10219400031DCD28CE28D428ED010A168A150F2355
:1021A4000A168A110B11831203130C1DDA28DB287B
:1021B40023290A128A11AD270A168A110A168A15CA
:1021C400E2220A168A11730883160313E2007208C6
:1021D400E1007108E0007008DF000030F300003017
:1021E400F2000030F1000030F0006208F7006108EE
:1021F400F6006008F5005F08F4000A128A1503204F
:102204000A168A11031807290829202991308316F0
:102214000313B8006608BC006508BB006408BA0074
:102224006308B90090300A128A112E200A168A1106
:1022340090300A168A15A6230A168A1183120313EC
:102244000C11831603135E08FF005D088A005C0806
:1022540084005B0E8300FE0E7E0E090083120313BE
:1022640027088039B1002708A8002807B800A61F4E
:102274003C293D293E2938143808031942294329A9
:102284005329380A031D4729482950290030A7003B
:102294000030A6000030A5000030A400A617A70156
:1022A4005B290030A7000030A6000030A5000030F4
:1022B400A40023088039FF007F08B1062308A80082
:1022C4002807B900A21F6729682969293914390820
:1022D40003196D296E297E29390A031D7229732970
:1022E4007B290030A3000030A2000030A1000030A0
:1022F400A000A217A30186290030A3000030A20089
:102304000030A1000030A00023082204210420048E
:10231400031D8D298E29A7290030A7000030A600AF
:102324000030A5000030A4008030A6047F30A7044C
:102334003108FF007F08A7042708A3002608A2008D
:102344002508A1002408A000FE2A3808031DAB2993
:10235400AC29B5290030A3000030A2000030A10050
:102364000030A000FE2A3808A800A9012908AB0003
:1023740039082802AA00031CAB032A087F3EB200D6
:102384002B080318013E003EB3002708B0002608BE
:10239400AF002508AE002408AD000030A7000030CF
:1023A400A6000030A5000030A4000030B7000030C3
:1023B400B6000030B5000030B400B9012B2A39084A
:1023C4000319E529E629062A0130A8000310AD0DFA
:1023D400AE0DAF0DB00DA80BE8290130A800031015
:1023E400A40DA50DA60DA70DA80BF129B71FFB2958
:1023F400FC29FD2924140130A8000310B40DB50DE7
:10240400B60DB70DA80BFF2923083002031D142AAB
:1024140022082F02031D142A21082E02031D142A48
:1024240020082D02031C172A182A272A37172008E8
:10243400AD022108031C210FAE022208031C220F47
:10244400AF022308031C230FB0020130FF007F08F2
:10245400B9071A303902031C302A312AE12930081D
:102464002F042E042D040319382A392A582A341427
:10247400582A0130A8000310A40DA50DA60DA70D20
:10248400A80B3D2AB71F472A482A492A2414013099
:10249400A8000310B40DB50DB60DB70DA80B4B2A4B
:1024A400FF30B2070318B30AFF30B307A61F5B2A35
:1024B4005C2A3B2AB901B71F602A612A7D2AFF30B2
:1024C4003405A800FF303505A900FF303605AA0001
:1024D4007F303705AB002B082A042904280403198C
:1024E400742A752A782AB901B90A7D2A241C7B2A00
:1024F4007C2A7D2A752A39080319812A822AB32A5B
:102504000130A407003003180130A5070030031878
:102514000130A607003003180130A707271C932AAF
:10252400942AB32A2408A8002508A9002608AA008A
:102534002708AB000130AC002B0DAB0CAA0CA90C86
:10254400A80CAC0B9E2A2B08A7002A08A600290871
:10255400A5002808A4000130B2070318B30A00300C
:10256400B3073308803AFF0080307F02031DBC2A82
:10257400FF303202031CBF2AC02ACE2AFF30831246
:102584000313B2000030B3000030A7000030A600EF
:102594000030A5000030A400831203133308803AEE
:1025A400FF0080307F02031DD92A01303202031854
:1025B400DC2ADD2AEA2A83120313B201B3010030B4
:1025C400A7000030A6000030A5000030A400B1012F
:1025D400831203133208B800381CF12AF22AF42AB1
:1025E400A617F82A7F30FF007F08A6053808A80040
:1025F4000310280CA7009A29080083120313E7008C
:102604006E306702031C072B082B152C3F30BD00CE
:102614000030BC000030BB000030BA006430F5006C
:102624000030F6006708D800D9015808F7005908A7
:10263400F8000A168A1571240A168A11750883127D
:102644000313DA0001300310DA0DFF3E031D252BBE
:1026540003105A0D7D3E84000A168A1100200A16C2
:102664008A11DB000A168A1100200A168A11DC007E
:102674000A168A1100200A168A11DD000A168A1128
:1026840000200A168A11DE005E08C1005D08C00041
:102694005C08BF005B08BE000A128A155C210A169A
:1026A4008A11831203133D08E6003C08E5003B0849
:1026B400E4003A08E3000A30F5000030F600670849
:1026C400D800D9015808F2005908F3006430F0002A
:1026D4000030F1000A168A1537240A168A11710887
:1026E400F8007008F7000A168A1571240A168A1170
:1026F400750883120313DA0001300310DA0DFF3E6C
:10270400031D7F2B03105A0D593E84000A168A11AB
:1027140000200A168A11DB000A168A1100200A1604
:102724008A11DC000A168A1100200A168A11DD00BB
:102734000A168A1100200A168A11DE005E08BD00FE
:102744005D08BC005C08BB005B08BA006608C100F9
:102754006508C0006408BF006308BE000A128A1539
:102764005C210A168A11831203133D08E2003C0817
:10277400E1003B08E0003A08DF000A30F0000030D6
:10278400F1006708D800D9015808F2005908F3008D
:102794000A168A1537240A168A117008831203133D
:1027A400DA0001300310DA0DFF3E031DD42B0310B1
:1027B4005A0D353E84000A168A1100200A168A1121
:1027C400DB000A168A1100200A168A11DC000A1698
:1027D4008A1100200A168A11DD000A168A110020C7
:1027E4000A168A11DE005E08BD005D08BC005C08A4
:1027F400BB005B08BA006208C1006108C000600841
:10280400BF005F08BE000A128A155C210A168A11ED
:10281400831203133D08D7003C08D6003B08D500BB
:102824003A08D400092D0B306702031C1A2C1B2C08
:10283400C62C3F30BD000030BC000030BB0000306F
:10284400BA000A30F5000030F6006708D800D90154
:102854005808F7005908F8000A168A1571240A1650
:102864008A11750883120313DA0001300310DA0D9C
:10287400FF3E031D382C03105A0D593E84000A16DE
:102884008A1100200A168A11DB000A168A11002018
:102894000A168A11DC000A168A1100200A168A1107
:1028A400DD000A168A1100200A168A11DE005E086D
:1028B400C1005D08C0005C08BF005B08BE000A12CE
:1028C4008A155C210A168A11831203133D08E60057
:1028D4003C08E5003B08E4003A08E3000A30F00055
:1028E4000030F1006708D800D9015808F2005908EF
:1028F400F3000A168A1537240A168A1170088312FF
:102904000313DA0001300310DA0DFF3E031D852C9A
:1029140003105A0D353E84000A168A1100200A1647
:102924008A11DB000A168A1100200A168A11DC00BB
:102934000A168A1100200A168A11DD000A168A1165
:1029440000200A168A11DE005E08BD005D08BC0086
:102954005C08BB005B08BA006608C1006508C000DB
:102964006408BF006308BE000A128A155C210A16B7
:102974008A11831203133D08D7003C08D6003B0894
:10298400D5003A08D400092D3F30BD000030BC000A
:102994000030BB000030BA006708D80001300310D3
:1029A400D80DFF3E031DD12C0310580D353E840075
:1029B4000A168A1100200A168A11D9000A168A11E9
:1029C40000200A168A11DA000A168A1100200A1653
:1029D4008A11DB000A168A1100200A168A11DC000B
:1029E4005C08C1005B08C0005A08BF005908BE005B
:1029F4000A128A155C210A168A11831203133D08F0
:102A0400D7003C08D6003B08D5003A08D40008009B
:102A1400831603132308803983120313E8008316F3
:102A240003132308A800280783120313EA0083165C
:102A34000313A21F1E2D1F2D222D831203136A14AC
:102A440083126A080319272D282D3C2D6A0A031DB9
:102A54002C2D2D2D372D003083160313A3000030A9
:102A6400A2000030A1000030A00083160313A217B7
:102A7400A301462D003083160313A3000030A200E7
:102A84000030A1000030A00027088039831203130E
:102A9400E900690868060319502D512D522D681755
:102AA400831603132708A800280783120313E900D9
:102AB40083160313A61F5F2D602D632D831203134A
:102AC4006914831269080319682D692D7D2D690A1B
:102AD400031D6D2D6E2D782D003083160313A70072
:102AE4000030A6000030A5000030A40083160313B4
:102AF400A617A701872D003083160313A700003003
:102B0400A6000030A5000030A400831203136A0855
:102B1400690203188E2D8F2DD72D681F922D932DAA
:102B2400972D8030FF007F08E8066A08EB006908EB
:102B3400EA006B08E90083160313200883120313C9
:102B4400EB00831603132408A000831203136B08FD
:102B540083160313A400210883120313EB008316C6
:102B640003132508A100831203136B0883160313B0
:102B7400A500220883120313EB008316031326080F
:102B8400A200831203136B0883160313A600230801
:102B940083120313EB00831603132708A300831285
:102BA40003136B0883160313A7008312EB01690850
:102BB40083160313A800A9012908AB008312031389
:102BC4006A08831603132802AA00031CAB032B080C
:102BD400803AFF0080307F02031DF22D1A302A0252
:102BE400031CF52DF62D3F2E831603132308220410
:102BF40021042004031DFF2D012E0130022E00307C
:102C040083120313EB00003083160313A300003078
:102C1400A2000030A1000030A00083120313690851
:102C2400EA00472E6B1C172E182E232E6B088316D2
:102C34000313A8000310280C013883120313EB00BC
:102C4400252E0310EB0C83160313201C2A2E2B2E87
:102C54002E2E83120313EB17013083160313A800DF
:102C6400230DA30CA20CA10CA00CA80B322E013036
:102C7400FF007F0883120313EA0783120313690812
:102C84006A02031C462E472E142E681B4A2E4B2E16
:102C9400A62E6A08031D4F2E502E5B2E003083167D
:102CA4000313A3000030A2000030A1000030A000F4
:102CB400FF2F831603132408A00725080311031804
:102CC400013E0319662EA107260803110318013ECD
:102CD40003196D2EA207270803110318013E0319D7
:102CE400742EA307231C772E782E6D2F83120313C3
:102CF4006B1C7D2E7E2E892E6B0883160313A80071
:102D04000310280C013883120313EB008B2E0310DD
:102D1400EB0C83160313201C902E912E942E8312F9
:102D24000313EB17013083160313A800230DA30C20
:102D3400A20CA10CA00CA80B982E0130FF007F0858
:102D440083120313EA076D2F831603132308803AB3
:102D5400FF002708803A7F02031DBA2E26082202AC
:102D6400031DBA2E25082102031DBA2E24082002B1
:102D74000318BD2EBE2E1A2FFF30A800FF30A90065
:102D8400FF30AA00FF30AB002408AC002508AD00DA
:102D94002608AE002708AF002008AC022108031C57
:102DA400210FD52ED62EAD022208031C220FDB2EB6
:102DB400DC2EAE022308031C230FE12EE22EAF0209
:102DC4002C08A8072D0803182D0FE92EEA2EA907B1
:102DD4002E0803182E0FEF2EF02EAA072F08031823
:102DE4002F0AAB072B08A3002A08A2002908A10078
:102DF4002808A0008030FF007F0883120313E80630
:102E0400EB09EB0A6B08031D082F092F282F01304B
:102E140083160313A007003003180130A107003004
:102E240003180130A207003003180130A307282F2C
:102E34002408A0022508031C250FA1022608031C50
:102E4400260FA2022708031C270FA30283160313CD
:102E54002308220421042004031D312F322F672F5D
:102E6400831203136B08031D382F392F672F00308B
:102E740083160313A3000030A2000030A100003029
:102E8400A000FF2F0130A8000310A00DA10DA20D7A
:102E9400A30DA80B462F83120313EB1F522F532F9E
:102EA400562F83160313201483126B1C5A2F5B2F87
:102EB4005E2F0314EB0D602F0310EB0D6A0803194A
:102EC400642F652F672F0130EA0283160313A21FB4
:102ED4006C2F6D2F442F8312E901EB1F722F732F78
:102EE400842F6B087F390319782F792F7D2F831254
:102EF400E901E90A842F83160313201C822F832FF0
:102F0400842F792F831269080319892F8A2FC22FDE
:102F1400013083160313A007003003180130A10702
:102F2400003003180130A207003003180130A30752
:102F3400231C9D2F9E2FC22F2008A8002108A90022
:102F44002208AA002308AB000130AC002B0DAB0C07
:102F5400AA0CA90CA80CAC0BA82F2B08A3002A08B8
:102F6400A2002908A1002808A000831203136A0AFA
:102F74000319BD2FBE2FC22F0130FF007F08EA07BF
:102F840083126A0A0319C72FC82FCD2F6A08031D9D
:102F9400CC2FCD2FDF2F003083160313A300003076
:102FA400A2000030A1000030A000831203136A08BD
:102FB400031DDD2FDE2FDF2FE8016A1CE22FE32F34
:102FC400E72F83160313A217ED2F7F30FF007F082E
:102FD40083160313A205831203136A0883160313CB
:102FE400A8000310280CA30083120313E81FFB2F6F
:0C2FF400FC2FFF2F83160313A317080007
:10357400F030FF007F0883120313970508008316B9
:103584000313081083120313081008006400800159
:10359400840A0406031900340406C92A8312031397
:1035A4000C11831603130C150B178B1708008312C9
:1035B40003138E018F019010901210121014080042
:1035C400831603136608F3006508F2006408F1002B
:1035D4006308F0000800730872047104700403198E
:1035E400F42AF52AF72A8030F30608000A168A1509
:1035F400C1220A168A150A168A155F230A168A1525
:103604000800F00083160313981C092B0A2B042BC3
:10361400700883120313990008008312031308141B
:103624000D30F000F00B142B8312031308108E01DD
:103634008F010800831603130C110A168A15BA2287
:103644000A168A15831203131715831603130C1510
:103654000800831603130717871783120313981799
:103664008316031318121813981618156730990047
:103674000800831603130C110A168A15BA220A16B7
:103684008A150530FF007F088312031397048316FD
:1036940003130C150800F100F0013A30710203180D
:1036A400542B552B5D2B30307102031C5A2B5B2B92
:1036B4005D2BF001F00A700C08000A168A15D92255
:1036C4000A168A1583160313071583120313971119
:1036D4001715971017140A168A15D0220A168A1578
:1036E40008008312031381018316031381128111CD
:1036F400831603173608B4003508B3000A168A1572
:10370400B0250A168A150B118B168B170800063084
:10371400831203138100103083160317B5000030A1
:10372400B6000A168A1573230A168A150A168A150C
:10373400F8220A168A150A168A152B230A168A15E0
:10374400A22B0A128A111228F400F201F301BB2BF6
:1037540072087407F1007108840000080A168A15BB
:1037640003230A168A150130F2070318F30A0030FE
:10377400F30772087407F1007108840083170008C6
:10378400031DC52BC62BAA2B0800803083160313F8
:10379400B3063708A3003608A2003508A100340890
:1037A400A0003308A7003208A6003108A50030089D
:1037B400A4000A168A110A250A168A158316031309
:1037C4002308B3002208B2002108B1002008B00089
:1037D4000800F401F501701CF02BF12BF72B720893
:1037E400F4070318F50A7308F50701300310F20D06
:1037F400F30DFF3E031DF82B01300310F10CF00C08
:10380400FF3E031DFF2B70087104031D0A2C0B2CB3
:10381400ED2B7508F1007408F0000800F800F401BD
:10382400F5017008F200F3017208F6007308F7005E
:10383400781C1D2C1E2C242C7608F4070318F50A7A
:103844007708F50701300310F60DF70DFF3E031D51
:10385400252C0310F80C7808031D312C322C1A2C5B
:103864007508F1007408F000080070087104031969
:103874003C2C3D2C6C2CF401F40A4B2C013003102D
:10388400F00DF10DFF3E031D412C0130FF007F08B8
:10389400F407F11F4E2C4F2C402C71087302031DAA
:1038A400552C70087202031C582C592C5F2C70087C
:1038B400F2027108031CF303F30201300310F10C4C
:1038C400F00CFF3E031D602C0130F402031D6B2C31
:1038D4006C2C4F2C7308F1007208F0000800F901F9
:1038E400FA01750876040319782C792CB02CFB01A5
:1038F400FB0A872C01300310F50DF60DFF3E031D66
:103904007D2C0130FF007F08FB07F61F8A2C8B2CCF
:103914007C2C01300310F90DFA0DFF3E031D8C2C95
:1039240076087802031D982C75087702031C9B2CDB
:103934009C2CA32C7508F7027608031CF803F802E4
:10394400791401300310F60CF50CFF3E031DA42C72
:103954000130FB02031DAF2CB02C8B2C7A08F6002F
:103964007908F500080000307005F8000030710592
:10397400F90080307205FA007F307305FB007B0884
:103984007A0479047804031DC82CC92CD12C003086
:10399400F3000030F2000030F1000030F00000309D
:1039A4007405F80000307505F90080307605FA00DA
:1039B4007F307705FB007B087A0479047804031DC3
:1039C400E42CE52CED2C0030F7000030F60000303C
:1039D400F5000030F40077087306031DFB2C76080D
:1039E4007206031DFB2C75087106031DFB2C74085D
:1039F40070060319FE2CFF2C012D0310022D031455
:103A04000800730872047104700403190A2D0B2D45
:103A14004E2DF901F90A1B2D0130F8000310F00DA9
:103A2400F10DF20DF30DF80B102D0130FF007F089E
:103A3400F907F31F1E2D1F2D0E2D73087702031D8A
:103A44002D2D72087602031D2D2D71087502031D9C
:103A54002D2D70087402031C302D312D3F2D70085C
:103A6400F4027108031C710FF5027208031C720F33
:103A7400F6027308031C730FF70201300310F30CF2
:103A8400F20CF10CF00CFF3E031D402D0130F90245
:103A9400031D4D2D4E2D1F2D7708F3007608F200DF
:103AA4007508F1007408F0000800F501F31F5B2DA0
:103AB4005C2D632DF209F309F20A0319F30AF501E7
:103AC400F50AF11F662D672D6C2DF009F109F00A36
:103AD4000319F10A700871040319712D722DA12DB7
:103AE400F401F40A802D01300310F00DF10DFF3EB6
:103AF400031D762D0130FF007F08F407F11F832D8D
:103B0400842D752D71087302031D8A2D70087202AD
:103B1400031C8D2D8E2D942D7008F2027108031C48
:103B2400F303F30201300310F10CF00CFF3E031D0C
:103B3400952D0130F402031DA02DA12D842D7508AF
:103B44000319A52DA62DAB2DF209F309F20A0319C9
:103B5400F30A7308F1007208F0000800E82D8316D8
:103B640003138115011181100110112E8316031303
:103B7400011181100110112E8316031301118110FC
:103B84000114112E83160313011181140110112E37
:103B940083160313011181140114112E83160313C8
:103BA400011581100110112E8316031301158110C4
:103BB4000114112E83160313011581140110112E03
:103BC40083160313011581140114112E8316031790
:103BD4003408003A0319F22D013A03190C2E112E60
:103BE4003308013A0319B12D033A0319B82D063AE3
:103BF4000319BE2D0C3A0319C42D183A0319CA2D02
:103C0400303A0319D02D603A0319D62DC03A03195E
:103C1400DC2D112E3308003A0319E22D112E080071
:103C24000030FC000030FB000030FA000030F900E6
:103C340073087204710470040319212E222E6F2E4E
:103C4400FD01FD0A322E0130F8000310F00DF10DD4
:103C5400F20DF30DF80B272E0130FF007F08FD074E
:103C6400F31F352E362E252E0130F8000310F90DE2
:103C7400FA0DFB0DFC0DF80B382E73087702031DAB
:103C84004D2E72087602031D4D2E71087502031D18
:103C94004D2E70087402031C502E512E602E700895
:103CA400F4027108031C710FF5027208031C720FF1
:103CB400F6027308031C730FF70279140130031022
:103CC400F30CF20CF10CF00CFF3E031D612E0130DD
:103CD400FD02031D6E2E6F2E362E7C08F3007B082A
:103CE400F2007A08F1007908F0000800FB01F71FE0
:103CF4007C2E7D2E842EF609F709F60A0319F70A9D
:103D0400FB01FB0AF91F872E882E912EF809F90969
:103D1400F80A0319F90A0130FF007F08FB06FC01C9
:103D2400FD01760877040319982E992ED02EFA01F6
:103D3400FA0AA72E01300310F60DF70DFF3E031DFE
:103D44009D2E0130FF007F08FA07F71FAA2EAB2E25
:103D54009C2E01300310FC0DFD0DFF3E031DAC2E07
:103D640077087902031DB82E76087802031CBB2E4F
:103D7400BC2EC32E7608F8027708031CF903F90257
:103D84007C1401300310F70CF60CFF3E031DC42E07
:103D94000130FA02031DCF2ED02EAB2E7B0803195F
:103DA400D42ED52EDA2EFC09FD09FC0A0319FD0ACE
:103DB4007D08F7007C08F600080003108312031343
:103DC400690D6A0D83160313A1002108031DEB2E50
:103DD400EC2EF72E003083120313EA000030E900C2
:103DE4000030E8000030E7006C2F831203136708EB
:103DF400EB006808EC006908ED006A08EE001F306B
:103E04000310EE0CED0CEC0CEB0CFF3E031D022F2B
:103E14006B0883160313A00083120313E917FF3002
:103E2400E705FF30E805FF30E9050030EA05963084
:103E340083160313A102A11F202F212F3F2F210836
:103E4400803A973E0318272F282F292FEC2E013074
:103E5400031083120313EA0CE90CE80CE70CFF3E91
:103E6400031D2A2F0130FF007F0883160313A107C7
:103E7400031D3D2F3E2F292F5A2F20302102031CD2
:103E8400442F452F552FEC2E013083120313EB00E2
:103E94000310E70DE80DE90DEA0DEB0B4A2F013095
:103EA40083160313A1022108031D592F5A2F462FED
:103EB400200803195E2F5F2F6C2F83120313E70969
:103EC400E809E909EA09E70A0319E80A0319E90A0A
:103ED4000319EA0A0800403083120313A3000030D8
:103EE400A2000030A1000030A0008316031369086B
:103EF4006B02F0006A08031C6A0A6C02F100F2010A
:103F0400F30100300A128A11F5260A168A1573087D
:103F140083120313A7007208A6007108A500700895
:103F2400A4000A168A1130210A168A158312031373
:103F34002308DB002208DA002108D9002008D80071
:103F44004030BD008030BC000030BB000030BA00FF
:103F54004B30A3007430A2002430A1000030A00034
:103F64005B08A7005A08A6005908A5005808A40031
:103F74000A168A1130210A168A158312031323089C
:103F8400C1002208C0002108BF002008BE000A1298
:103F94008A155C210A168A15831203133D08DF0073
:103FA4003C08DE003B08DD003A08DC004730BD0079
:103FB4000430BC00D030BB000030BA005F08C10040
:103FC4005E08C0005D08BF005C08BE000A128A15C6
:103FD4005C210A168A15831203133D08E3003C088A
:103FE400E2003B08E1003A08E0006308D7006208F9
:103FF400D6006108D5006008D4000800FF3FFF3FE9
:04400400FF3FFF3F3C
:02400E00FA3F77
:00000001FF
